:020000040800F2
:1000000070060020AD01000801160008E714000882
:10001000FD150008AB130008D91A00080000000005
:10002000000000000000000000000000451900086A
:10003000AF1300080000000023190008311A00085F
:10004000C7010008C7010008C7010008C701000870
:10005000C7010008C7010008C7010008C701000860
:10006000C7010008C7010008C7010008C701000850
:10007000C7010008C7010008C7010008C701000840
:10008000C7010008C7010008C7010008C701000830
:10009000C7010008C7010008C7010008C701000820
:1000A000C7010008C7010008C7010008C701000810
:1000B000C7010008951A0008C7010008C701000819
:1000C000C7010008C7010008C7010008C7010008F0
:1000D000C7010008C7010008C7010008C7010008E0
:1000E000C7010008C7010008C701000800F002F8B6
:1000F00000F04DF80AA090E8000C82448344AAF175
:100100000107DA4501D100F042F8AFF2090EBAE872
:100110000F0013F0010F18BFFB1A43F0010318473B
:1001200098240000B8240000103A24BF78C878C191
:10013000FAD8520724BF30C830C144BF04680C60ED
:10014000704700000023002400250026103A28BF35
:1001500078C1FBD8520728BF30C148BF0B60704739
:10016000662901F0B085642900F05480782900F0F8
:100170008D80002070471FB500F0DAFB04000020DE
:10018000002101F0F7FCE0601FBD10B510BD00F0CC
:10019000CFFC1146FFF7EFFF01F0BCFC00F0EDFCD7
:1001A00003B4FFF7F2FF03BC00F030FD09488047BD
:1001B00009480047FEE7FEE7FEE7FEE7FEE7FEE749
:1001C000FEE7FEE7FEE7FEE704480549054A064B61
:1001D00070470000351A0008ED000008700000208C
:1001E0007006002070020020700200200FB41CB5C1
:1001F000074B06AA7B4469460090059800F07FFBF8
:100200000020694600F08EFB1CBC5DF814FB00006A
:100210002D0700002DE9F0410646002410687529DD
:10022000314616A510D0AFF30080002802DA404214
:1002300013A507E031688A0701D512A502E0490736
:1002400004D511A5012401E0AFF3008000210A22AA
:1002500006F1240709E0B0FBF2FCB0FBF2F302FB6D
:100260001C00303078541846491C0028F3D123462E
:100270002A463046BDE8F04100F0D3B80000000047
:100280002D0000002B0000002000000070B5044687
:100290000D4621461068AFF300802188090502D57C
:1002A0000F4A7A4402E00E4A7A440E32002104F1E9
:1002B000240305E000F00F060009965D5E54491C1A
:1002C0000028F7D120780023000704D5702D02D034
:1002D00009B1022311322046BDE8704000F0A1B8F8
:1002E000442200002DE9F05F894604464FF0000AE1
:1002F000DFF824B1FB44C0F820A02046E16888471D
:1003000000287DD0252806D0D4E901219047206A15
:10031000401C2062F1E700255F462046E1688847DF
:100320002028064607DB312E05D2B81910F8200C1C
:1003300008B10543F1E7A80701D525F00405C4F885
:100340001CA00027C4F818A02A2E09D0304601F0BE
:10035000D9FB38B304EB8708303EC8F8186019E0C1
:1003600059F8041B204604EB87029161E168884735
:10037000012F064618D1E069002820DA25F0200573
:100380001DE0D8F8180000EB800006EB4000303884
:10039000C8F818002046E1688847064601F0B2FB1D
:1003A0000028EED1012F0AD02E2E08D12046E16878
:1003B00088477F1C0646022F45F02005C4DBA06954
:1003C000002803DA404245F00105A061E80701D0AA
:1003D00025F01005A6B1A6F14100192802D8203653
:1003E00045F400654A463146204625604D46FFF7F4
:1003F000B7FE60B1012807D0ED1D25F0070000E031
:1004000007E000F1080978E705F1040975E73046CF
:100410007AE7206ABDE8F09F1A2200007047704713
:1004200070472DE9F0470D4699469246044600F183
:1004300024080168880604D5E06921F010012160D4
:1004400000E00120A84201DD471B00E00027A16970
:100450007A1902EB0900081AA0612078C00602D4BC
:100460002046AFF30080002608E0D4E901211AF805
:1004700006009047206A401C761C20624E45F4DB43
:100480002078C0060AD52046AFF3008006E0D4E904
:10049000012130209047206A401C2062381EA7F1BD
:1004A0000107F4DC07E0D4E9012118F805009047C2
:1004B000206A401C2062281EA5F10105F3DC2046BD
:1004C000AFF300802078000602D50220BDE8F08757
:1004D0000120FBE770472DE9FF4F0C461E464FF009
:1004E000FF378BB0D2E90001DDF860800A908A46C0
:1004F000C1F30A5505B93D46002108464FF00000FA
:10050000BAF1000F00F4400005DA00EB80004FF470
:10051000400101EA50004FEA9059B9F1010F00DDA6
:10052000B9460A9850EA4A000ED044F61050A5F297
:10053000FF3545432F14B8F1000F1ED07542291E18
:100540001EDDC9F100021CE0B8F1010F4FF0000000
:1005500001D0302103E0F24305E02154401CB042B9
:10056000FBDB30460022002121540B99C1F80880A2
:10057000C1E900200FB0BDE8F08FBD1B6D1CDEE7A8
:100580004A4600DA694206A800F05CFA06AB93E836
:10059000070003AB83E8070050460A9900F03DFBD3
:1005A0008DE80700A0F500501F3800900398002D3B
:1005B0000ADD42F21F014A460844002303A90390C2
:1005C000684600F0A6FD09E0A0F500504A461F3835
:1005D000002303A90390684600F0B0FD8DE80700F2
:1005E0000004000C03D04FF0FF30410800E010463B
:1005F000B8F1000F03D00022009215461EE0751ED0
:1006000005D400F099F9303262556D1EF9D5B34624
:100610000122084302D000227F1C04E02078302809
:1006200001D100227F1E002A099784D01DE0112DE0
:1006300007DA00F081F9303262556D1C50EA010290
:10064000F5D1084302D00098C8B10EE00021681E21
:1006500005E0235C625C63542254401E491C8142C5
:10066000F7DBAB46A81B401E0990002004F80B00E6
:100670000B98099AC0F80880C0E9002B7AE7112688
:100680004FF0000857E72DE9F04F88460446D21D89
:1006900022F0070191B0D1E90001CDE90A0101F092
:1006A0001DFA02460B98C00F01D02D2007E02068EC
:1006B000810701D52B2002E0202101EAC000032A96
:1006C000099001D0072A05DB03464146204600F089
:1006D00079F90BE12078800601D5E06900E0062079
:1006E000B8F1650F814606D0B8F1660F18D0B8F1A1
:1006F000670F70D131E00020B9F1110F009001DBDC
:10070000112301E009F101030AAA01A90CA8FFF7CE
:10071000E2FEDDE90C70002609F10105834647E0A1
:1007200001204B4600904FF000470AAA01A90CA8EF
:10073000FFF7D1FEDDE90DB00C995D46002610B93A
:1007400009F101000D18B9EB050003D4C0F1FF3623
:1007500009F10105A5EB09002BE0B9F1010F01DA60
:100760004FF001090020B9F1110F0090484601DD5A
:10077000112300E003460AAA01A90CA8FFF7ABFE6B
:10078000DDE90C704D4600268346207800070AD428
:10079000AB4500DA5D4601A8012D04DD411911F8D1
:1007A000011C302907D04F4502DA17F1040F04DA93
:1007B000012082460FE06D1EEEE7002F02DCED1BEC
:1007C0003E4403E0781CA84200DD7D1CB81B00F10C
:1007D000010A4FF000472078000703D4AA4501DB47
:1007E0004FF0FF3A0021B7F1004F0DF143088DF8AB
:1007F000431024D002202B23002F01DA7F422D2327
:100800000A21021EA0F1010000DC5FB197FBF1FCA0
:1008100097FBF1F201FB1C7C17460CF1300C08F839
:1008200001CDEEE7A8F1010003702188090501D58B
:10083000452100E06521A0F1010800F8011C09989C
:100840000FA9A1EB0807FF1D00B10120411901EB21
:10085000EA70A1693844081A401EA0612078C006D9
:1008600002D42046AFF30080099828B1D4E90121D1
:100870009047206A401C20622078C00622D520467E
:10088000AFF300801EE0002E04DBB34502DD01A8BB
:10089000805D00E03020D4E901219047206A401CAF
:1008A0002062761CAAF101005FEA000A0AD100F07A
:1008B0003FF8C0680168405CD4E901219047206A94
:1008C000401C2062281EA5F10105DCDC07E0D4E90C
:1008D000012118F8010B9047206A401C2062381E45
:1008E000A7F10107F3DC2046AFF30080032011B02D
:1008F00041E6000001694A1C02610878704700B5B2
:100900008FB0CDE901310021059105497944CDE948
:10091000031011466846FFF7E5FC0FB000BD00006C
:10092000E5FFFFFF0A6802F8010B0A60704700004C
:10093000004870473000002030B5B0F10A024FEA9D
:10094000900E71F100034EEA817EB0EB0E0061EB78
:1009500091014FEA101E4EEA017E10EB0E0041EBB2
:1009600011114FEA102E4EEA016E10EB0E0041EB12
:1009700011214FEA104E4EEA014E10EB0E0041EBF2
:100980001141401841F100014FEAD00040EA4170A6
:100990004FEAD10110EB80054FEA810444EA9074DC
:1009A00044EB01046D1944EB0404521BA3414FF0C6
:1009B000000348BF0A3200D530BD401C41F10001A0
:1009C00030BD00002DE9F0411F46044603260168B2
:1009D000072A01F4006004DB08B116A505E016A59E
:1009E00003E008B115A500E015A521F01000206076
:1009F000A069C01EA0610FB1401EA0612046AFF3E8
:100A000000804FB1D4E9012138469047206A401C4C
:100A10002062C01C206206E0206AFAE7D4E90121C6
:100A200015F8010B9047761EF8D22046AFF30080F0
:100A3000BDE8F0814E414E006E616E00494E4600A9
:100A4000696E66002DE9F047814616468AB0354842
:100A500078440DC88DE80D0032487844801C03AC02
:100A60000DC884E80D0041F69B300844372190FB07
:100A7000F1F290FBF1F5A5F1800501FB12041B3C9E
:100A800002D56442012000E00020DFF898A08046F3
:100A90000027FA44AAF1BE0A0EE0E0070AD0324667
:100AA000684607EB470101230AEB810100F046FB92
:100AB0008DE8070064107F1C002CEED1194F7F4495
:100AC000AE3F19E0E80715D007EB04100DF1180A46
:100AD00090E80E008AE80E00C068F04201D1981933
:100AE00008903246012306A903A800F027FB03ABB8
:100AF00083E807006D10641C002DE3D14FF0010363
:100B000032466946B8F1000F03A802D000F001FB9D
:100B100001E000F013FBC9E90001C9F808200AB0A0
:100B2000BDE8F0874C1B0000004870471000002013
:100B30007546FFF7F9FFAE4605006946534620F0BB
:100B40000700854618B020B5FFF73EFBBDE8204002
:100B50004FF000064FF000074FF000084FF0000B79
:100B600021F00701AC46ACE8C009ACE8C009ACE82C
:100B7000C009ACE8C0098D46704710B50446AFF314
:100B800000802046BDE81040FFF70ABB4FF0013C53
:100B900050F8042B51F8043B9A4221D1A2EB0C03EC
:100BA000934313EACC1317D150F8042B51F8043BAC
:100BB0009A4215D1A2EB0C03934313EACC130BD149
:100BC00050F8042B51F8043B9A4209D1A2EB0C03D4
:100BD000934313EACC13DBD04FF00000704700BF03
:100BE000D01A01BAB1FA81F101F0180122FA01F02C
:100BF000CB40C1F12001DBB2C0B2C01A2CFA01F324
:100C0000D11A914311EAC311E6D170470149182066
:100C1000ABBEFEE72600020070475FEA400C08BF4B
:100C200091F0000F4FEA8C234FEAC12243EA515161
:100C30004FEA1C5018BF00F5F0404FEA300018BFD3
:100C400041F000415FEA6C5C00F02980BCF1FF3F9D
:100C500008BF40F080407047130C06BF12044FF0ED
:100C6000100C4FF0000C130E04BF12020CF1080C14
:100C7000130F04BF12010CF1040C930F04BF920078
:100C80000CF1020CD30F04BF52000CF1010C114601
:100C90004FF00002A0F11F00A0EB0C00704711F014
:100CA000004F08BF704731F000413FF4D5AF0B0C47
:100CB00006BF09044FF0100C4FF0000C0B0E04BFE0
:100CC00009020CF1080C0B0F04BF09010CF1040C14
:100CD0008B0F04BF89000CF1020CCB0F04BF49003D
:100CE0000CF1010CCCF12003A0EB0C0022FA03F371
:100CF00002FA0CF241EA030100F10100704720F012
:100D00007F4C80EA030023F07F47ACEB070303F539
:100D10007C5300F0004003F1FF032DE980494FEAC6
:100D2000154B09B44FEA144325EA0B4E24EA034855
:100D30000FF2042606EB132749083E785FEA3202D9
:100D400003FB0667C7F5000707FB06F64FEA5437B3
:100D50004FEAD64606F1020607FB066CCCF1005CB2
:100D60004FEA1C472CEA074C07FB06F40CFB06F580
:100D700004EB15464FEA961634BF00204FF00040B2
:100D80004FEAD13706FB07FC4FEA1C4C0CFB0BF774
:100D9000D21B03FB0CF761EB07010CFB0EF7B0EB6A
:100DA000074072EB17420CFB08F734BFA2EB074277
:100DB000B2EB074261EB17414FEA0C444FEA91074F
:100DC00006FB07FC4FEA1C4C0CFB0BF7B0EBC740D3
:100DD00072EB573203FB0CF734BFA2EBC742B2EB06
:100DE000C74261EB57310CFB0EF7B0EBC70072EB5B
:100DF00057720CFB08F734BFA2EBC702B2EBC70275
:100E000061EB5771039F4FEA816141EA921104EB54
:100E1000CC044FEAD1374FEA826206FB07FC42EA74
:100E200090124FEA80604FEA1C4C0CFB0BF7D21B70
:100E300003FB0CF761EB07010CFB0EF7B0EB07406F
:100E400072EB17420CFB08F734BFA2EB0742B2EB80
:100E5000074261EB17414FEA8C554FEA910704EBCB
:100E60009C2406FB07FC4FEA1C4C0CFB0BF7B0EB79
:100E7000C74072EB573203FB0CF734BFA2EBC742FB
:100E8000B2EBC74261EB57310CFB0EF7B0EBC7007A
:100E900072EB57720CFB08F734BFA2EBC702B2EB40
:100EA000C70261EB577115EB4C254FEA816141EAAE
:100EB00092114FEA82624FEAD13742EA901206FB62
:100EC00007FC44F100044FEA80604FEA1C4C0CFB25
:100ED0000BF7D21B03FB0CF761EB07010CFB0EF7C2
:100EE000B0EB074072EB17420CFB08F734BFA2EBE4
:100EF0000742B2EB074261EB174115EB1C154FEAB5
:100F0000813141EA92414FEA823242EA90424FEA0D
:100F100080304FEA0C7644F1000448EA03434EEA7D
:100F20000B484FF0000EB2EB080C71EB030724BF27
:100F3000624639464EEB0E0E4FF0000B0018524140
:100F400049414BEB0B0BB2EB080C71EB03077BF148
:100F5000000B24BF624639464EEB0E0E4FF0000BDD
:100F60000018524149414BEB0B0BB2EB080C71EBF3
:100F700003077BF1000B24BF624639464EEB0E0E91
:100F800051EA020718BF46F0010616EB0E7655F13E
:100F9000000254F1000103D5BDE88901BDE80088D5
:100FA000BDE88901BDE80048B619524141EB010195
:100FB000A3F10103704780807F7E7D7C7B7A797806
:100FC000777676757473727171706F6E6E6D6C6C0E
:100FD0006B6A6A69686867666665646463636261B0
:100FE0006160605F5F5E5E5D5D5C5C5B5B5A5A5931
:100FF000595858575756565555555454535352529D
:101000005251515050504F4F4F4E4E4D4D4D4C4CF4
:101010004C4B4B4B4A4A4A4949494848484747473D
:10102000474646464545454444444443434343427A
:10103000424242414141002B9C4630D477002BD0A4
:101040001CB54FEA370703B44FF010004FF0100102
:10105000BAF1000F06D0BCF1000FDCBF40F0080071
:1010600040F008014FF000000FBCBDE810400BF14C
:10107000010BBBF1010F08BF5FEA170722BF12F196
:10108000010211F101014FF0004143F1000300F0B2
:10109000004043EA00007047F9D35708D0E746EA1A
:1010A000064613F1400F4FEA16461FDD13F1200FDD
:1010B000DFBF16430A46002120335B42BED0C3F196
:1010C000200746EA064602FA07F74FEA164646EABE
:1010D0000706C3F1200722FA03F201FA07F721FA03
:1010E00003F14FF0000342EA0702A7E746EA0206CF
:1010F00046EA06464FEA164646EA0106BCBF46EAFD
:101100000646360C4FF000034FF000024FF000018E
:1011100094E72DE9804C9A46934670B491E83800E4
:1011200007C831EA400C48BF34EA430C03D5FFF747
:10113000E6FDFFF780FFF0BCBDE8008C2DE9804C98
:101140009A46934670B491E8380007C810F0804F73
:1011500008BF13F0804F03D100F005F8FFF76BFFD5
:10116000F0BCBDE8008C20F07F4780EA030023F04C
:101170007F4C07EB0C03A3F57C5300F00040A3F178
:10118000FE0392F0000F00F0B38095F0000F00F026
:1011900077802DE901494FEA11404FEA144621EAD0
:1011A000004800FB06FC24EA064708FB06F607FB9E
:1011B00008F800FB07F718EB06484CEB164C4FEA13
:1011C000124B18EB07484FEA15464CEB174022EA42
:1011D0000B4E0BFB06FC25EA06470EFB06F607FB4B
:1011E0000EFE0BFB07F71EEB064E4CEB164C4FF0BA
:1011F00000061EEB074E4CEB174B18EB0B0840F1AB
:10120000000018EB0E0B58EB000840F100008F1A9D
:101210004FF000013CBFC943661B14BFB5EB040C83
:1012200000213CBFC943F61B4FEA17444EEA8E0E1D
:1012300027EA04454FEA1C4704FB07622CEA074CE7
:1012400005FB07F70CFB05F604FB0CFC16EB074649
:1012500042EB174216EB0C4642EB1C421BEB060618
:1012600058EB0202414146EA9E0601D5BDE80189DC
:10127000B619524141EB0101A3F10103BDE8018917
:101280004FEA14454FEA114724EA054621EA074C84
:1012900005FB07F406FB07F70CFB06F105FB0CFC4E
:1012A00011EB074144EB17444FEA124711EB0C4195
:1012B00044EB1C4422EA074C05FB07F206FB07F748
:1012C0000CFB06F605FB0CFC16EB074642EB17423F
:1012D00016EB0C4642EB1C456A1854F1000148BF5E
:1012E0007047B619524141EB0101A3F10103704768
:1012F00095F0000F37D04FEA11424FEA144721EA28
:10130000024624EA074C02FB07F106FB07F70CFB39
:1013100006F402FB0CFC14EB074441EB17414FEAC7
:10132000154714EB0C4441EB1C4125EA074C02FB2A
:1013300007F506FB07F70CFB06F602FB0CFC16EBA9
:10134000074645EB174516EB0C4645EB1C421219B8
:1013500051F1000148BF7047B619524141EB0101FC
:10136000A3F1010370474FEA14454FEA114724EAFD
:10137000054621EA074C05FB07F106FB07F70CFBC6
:1013800006F24FF0000605FB0CFC12EB074241EBA6
:10139000174112EB0C4251EB1C4148BF70479218A9
:1013A00041EB0101A3F10103704700BFFEE7704765
:1013B0002DE9F041024600250026002000230024EC
:1013C000002791F803C00CF00F0591F803C00CF052
:1013D000100CBCF1000F03D091F802C04CEA0505D7
:1013E00091F800C0BCF1000F31D0146800202BE050
:1013F0004FF0010C0CFA00F3B1F800C00CEA030640
:101400009E4220D183004FF00F0C0CFA03F7BC432F
:1014100005FA03FC4CEA040491F803C0BCF1280F60
:1014200006D14FF0010C0CFA00FCC2F814C00AE01F
:1014300091F803C0BCF1480F05D14FF0010C0CFA34
:1014400000FCC2F810C0401C0828D1D31460B1F8C9
:1014500000C0BCF1FF0F34DD546800202EE000F125
:10146000080C4FF0010808FA0CF3B1F800C00CEAC0
:1014700003069E4221D183004FF00F0C0CFA03F7B4
:10148000BC4305FA03FC4CEA040491F803C0BCF128
:10149000280F05D100F1080C08FA0CF8C2F81480E6
:1014A00091F803C0BCF1480F07D100F1080C4FF0D0
:1014B000010808FA0CF8C2F81080401C0828CED3A6
:1014C0005460BDE8F0810246002093680B400BB1E8
:1014D000012000E000207047016170470AB10161FE
:1014E00000E04161704700BFFEE710B50446618926
:1014F0006068FFF7E8FF10BD2DE9F04106460D4694
:10150000002410E08020204100EA0501304600F070
:101510004EF80121304600F041F80021304600F03D
:101520003DF8601CC4B2082CECDB0121304600F011
:101530003EF80121304600F031F83046FFF7D5FF84
:1015400007460021304600F029F83846BDE8F08112
:1015500010B504460121204600F029F8012120465B
:1015600000F01CF80021204600F021F80021204660
:1015700000F014F810BD10B504460021204600F01C
:101580000DF80021204600F012F80121204600F05D
:1015900005F80121204600F00AF810BD70B5044698
:1015A0000D4621892A466068FFF798FF70BD70B527
:1015B00004460D4661892A466068FFF78FFF70BDBB
:1015C00038B504460121206800F0ACF914208DF8EC
:1015D000030003208DF80200208961890843ADF8DB
:1015E000000069466068FFF7E3FE21896068FFF745
:1015F00073FF61896068FFF76FFF38BD00BFFEE7CA
:10160000704770B500240EE00021204600F06AF813
:10161000002504E0002000F08FF8681CC5B2802D82
:10162000F8DB601CC4B2082CEEDB70BD10B50446BC
:101630002E2000F069F814B9A62000F065F8012CFE
:1016400002D1A72000F060F810BD000010B52448BA
:10165000FFF7B6FFAE2000F057F8D52000F054F8A1
:10166000802000F051F8A82000F04EF83F2000F054
:101670004BF8D32000F048F8002000F045F8A120F6
:1016800000F042F8C82000F03FF8DA2000F03CF803
:10169000122000F039F8812000F036F8CF2000F059
:1016A00033F8D92000F030F8F12000F02DF8DB20DD
:1016B00000F02AF8302000F027F8A42000F024F8E9
:1016C000A62000F021F88D2000F01EF8142000F074
:1016D0001BF8FFF796FFAF2000F016F810BD0000D2
:1016E0000400002070B505460C4645F0B00000F03F
:1016F0000BF8102141EA141000F006F804F00F0076
:1017000000F002F870BD000010B504460948FFF76C
:101710001FFF78210748FFF7EFFE00210548FFF77C
:10172000EBFE21460348FFF7E7FE0248FFF723FFE1
:1017300010BD00000400002010B504460948FFF762
:1017400007FF78210748FFF7D7FE40210548FFF73C
:10175000D3FE21460348FFF7CFFE0248FFF70BFFF9
:1017600010BD0000040000202DE9F0470646894620
:1017700017469846A7F12000C5B249463046FFF704
:10178000B1FFB8F1000F1FD0002407E0164901EBAC
:101790000511085DFFF7D0FF601CC4B2082CF5DB13
:1017A000711CC8B24946FFF79DFF002409E00E49AD
:1017B00001EB051204F10801505CFFF7BDFF601C4E
:1017C000C4B2082CF3DB0DE0002409E005EB450171
:1017D000064A02EB4101085DFFF7AEFF601CC4B290
:1017E000062CF3DBBDE8F087FA1E0008D21C0008C7
:1017F0002DE9F0478046894616461C46DDF820A0B4
:10180000002513E008EB0501C8B24946FFF76AFF5F
:10181000002707E005FB06711AF80100FFF78CFFAF
:10182000781CC7B2B742F5DB681CC5B2E11704EB00
:101830005171B5EBE10FE5DBBDE8F0872DE9FF5F06
:1018400006460C4691469A46DDF838B00025BAF1B6
:10185000000F06D0BAF1010F0ED0BAF1020F1FD15E
:1018600014E0484600F0A2F907463A460B461AA192
:101870006846FEF7BBFC15E0484600F0C3F9074692
:101880003A4617A16846FEF7B1FC0BE0484600F067
:10189000B9F907463A4613A16846FEF7A7FC01E0EE
:1018A000BDE8FF9F00BF10E01DF805205B46214604
:1018B0003046FFF759FF04F10800C4B2782C02DD6E
:1018C0000024B01CC6B2681CC5B21DF80500002873
:1018D000EAD100BFE4E7000025302E3266000000A8
:1018E00025640000255800002DE9F04107460C460C
:1018F0001546984600260FE0AA5D43462146384625
:10190000FFF732FF04F10800C4B2782C02DD002496
:10191000B81CC7B2701CC6B2A85D0028ECD1BDE8E7
:10192000F081704729B1064A92690243044B9A61DB
:1019300004E0034A92698243014B9A6170470000B8
:1019400000100240704710B500F002F810BD000012
:101950000CB50020019000903348006840F48030BE
:101960003149086000BF3048006800F40030009042
:101970000198401C0190009818B90198B0F5A06F2B
:10198000F1D12948006800F4003010B10120009026
:1019900001E0002000900098012843D1234800680E
:1019A00040F01000214908600846006820F0070058
:1019B00008600846006840F0020008601A48406865
:1019C000194948600846406848600846406840F445
:1019D000806048600846406820F47C1048600846F3
:1019E000406840F4E81048600846006840F08070A5
:1019F000086000BF0C48006800F000700028F9D0B3
:101A00000948406820F003000749486008464068DC
:101A100040F00200486000BF0348406800F00C003E
:101A20000828F9D10CBD000000100240002002403F
:101A30007047000010B51348006840F001001149DC
:101A4000086008464068104908400E49486008464A
:101A500000680E4908400B4908600846006820F4F9
:101A6000802008600846406820F4FE0048604FF47B
:101A70001F008860FFF767FF4FF0006004490860AF
:101A800010BD0000001002400000FFF8FFFFF6FE4E
:101A900008ED00E010B50121074800F014F8012816
:101AA00008D10121044800F00BF804480078401CDC
:101AB0000249087010BD0000000400400000002032
:101AC000CA430282704702460020138A0B400BB1C2
:101AD000012000E00020704700BFFEE7490050EA07
:101AE000C12018BF04204A0D18BF40F0010040F289
:101AF000FF72B2EB515F08BF40F00200012808BF3F
:101B00000520704730380A2801D201207047002094
:101B10007047000008B5FFF799FD00200346104A02
:101B200001460090FFF78AFE002001230D4A01467E
:101B300000900220FFF782FE01230BA20021032068
:101B4000FFF7D2FE0A4808231A460021009006201B
:101B5000FFF74EFE0020FFF769FD00BFFEE7000023
:101B600066663542000084426473667361660000F5
:101B7000CA1C000810B500290AD00878002807D030
:101B800005487844FFF702F8002801D0002010BD76
:101B90000248784410BD0000560A00004E0A0000BA
:101BA0000808A0F500114FEA3101704743004FEAE1
:101BB000D30C4FEA3C0C43401FBF40070CF160516F
:101BC00013F0FE4F70471CF0006F03D100200CF0A3
:101BD000004170470CF0004343EA507010B540EAF2
:101BE000CC0000F02AF800BF000000924FEA00018C
:101BF000FFF7D6BF4FF000414FF00000A1F50021E4
:101C00007047000041000B0ED3F19E0208D950F43A
:101C100000034FEA032323FA02F048BF4042704713
:101C200010B500F00AF800BF4992248000207047E8
:101C30006FF0004282EA200070470EF1020E2EF093
:101C4000030E5EF8044B244204D44FEA4102B2F181
:101C50007F4F11D84FEA4003B3F17F4F0CD80ED11C
:101C60004FEAD07CB2F17F4F0CEB4C0C0CF1020C24
:101C700008BF4CEBD17C04E04FF0080C01E04FEAC8
:101C8000D17C0CEB4C0324FA03F404F00704B4F108
:101C9000040C06D20EEB840CBDE810404CF0010C95
:101CA0006047DFE80CF0070802024FF00040A0F5A3
:101CB000800010BD0846420018BFD2F1807288BF74
:101CC00000F0004010BDFEF7DEBCFFFFC3C3C3C37E
:101CD000FFFF0000000000000000002F00000000D7
:101CE0000700070000147F147F1400242A7F2A12A3
:101CF0000062640813230036495522500000050392
:101D0000000000001C224100000041221C000014C1
:101D1000083E08140008083E0808000000A0600003
:101D20000008080808080000606000000020100893
:101D30000402003E5149453E0000427F40000042FF
:101D400061514946002141454B31001814127F1062
:101D5000002745454539003C4A4949300001710991
:101D6000050300364949493600064949291E000045
:101D700036360000000056360000000814224100EC
:101D8000001414141414000041221408000201511C
:101D9000090600324959513E007C1211127C007F25
:101DA00049494936003E41414122007F4141221CC0
:101DB000007F49494941007F09090901003E414925
:101DC000497A007F0808087F0000417F4100002019
:101DD00040413F01007F08142241007F40404040C5
:101DE000007F020C027F007F0408107F003E41410B
:101DF000413E007F09090906003E4151215E007FF6
:101E0000091929460046494949310001017F01016C
:101E1000003F4040403F001F2040201F003F40380F
:101E2000403F00631408146300070870080700614E
:101E30005149454300007F41410000552A552A552C
:101E4000000041417F0000040201020400404040C4
:101E50004040000001020400002054545478007FE8
:101E60004844443800384444442000384444487FBF
:101E700000385454541800087E0901020018A4A424
:101E8000A47C007F080404780000447D40000040EA
:101E900080847D00007F102844000000417F4000C6
:101EA000007C04180478007C08040478003844445A
:101EB000443800FC242424180018242418FC007C36
:101EC0000804040800485454542000043F444020AF
:101ED000003C4040207C001C2040201C003C403046
:101EE000403C004428102844001CA0A0A07C0044D2
:101EF00064544C4414141414141400000000000022
:101F000000000000000000000000000000F80000D9
:101F10000000000000333000000000100C06100C20
:101F20000600000000000000000040C07840C078BB
:101F30004000043F04043F040400007088FC0830A3
:101F40000000001820FF211E0000F008F000E0183B
:101F5000000000211C031E211E0000F008887000F4
:101F600000001E2123241927211010160E00000046
:101F700000000000000000000000000000E0180465
:101F80000200000000071820400000020418E000D2
:101F900000000040201807000000404080F0804012
:101FA00040000202010F01020200000000F00000E8
:101FB00000000101011F01010100000000000000FC
:101FC000000080B070000000000000000000000071
:101FD00000000001010101010101000000000000FA
:101FE00000000030300000000000000000008060B1
:101FF0001804006018060100000000E01008081036
:10200000E000000F102020100F00001010F800005A
:1020100000000020203F20200000007008080888F1
:1020200070000030282422213000003008888848C1
:1020300030000018202020110E000000C02010F8F1
:10204000000000070424243F240000F808888808C2
:1020500008000019212020110E0000E010888818C7
:102060000000000F112020110E0000380808C838A9
:1020700008000000003F0000000000708808088889
:102080007000001C222121221C0000E01008081012
:10209000E0000000312222110F00000000C0C0004B
:1020A0000000000000303000000000000080000050
:1020B0000000000080600000000000008040201050
:1020C0000800000102040810200040404040404049
:1020D00040000404040404040400000810204080AC
:1020E00000000020100804020100007048080808E1
:1020F000F0000000003036010000C030C828E810B1
:10210000E0000718272423140B000000C038E0006B
:102110000000203C23020227382008F888888870B5
:102120000000203F202020110E00C03008080808C1
:102130003800071820202010080008F808080810A8
:10214000E000203F202020100F0008F88888E808D1
:102150001000203F20202320180008F88888E80875
:102160001000203F200003000000C030080808389D
:10217000000007182020221E020008F808000008AE
:10218000F808203F210101213F20000808F8080835
:1021900000000020203F2020000000000808F80870
:1021A0000800C08080807F00000008F888C02818E0
:1021B0000800203F20012638200008F80800000011
:1021C0000000203F20202020300008F8F800F8F818
:1021D0000800203F003F003F200008F830C0000802
:1021E000F808203F200007183F00E01008080810FA
:1021F000E0000F10202020100F0008F80808080841
:10220000F000203F210101010000E0100808081043
:10221000E0000F18242438504F0008F88888888878
:102220007000203F2000030C302000708808080850
:1022300038000038202121221C00180808F808085E
:1022400018000000203F2000000008F808000008E7
:10225000F808001F202020201F000878880000C8F0
:102260003808000007380E010000F80800F80008E0
:10227000F800033C0700073C0300081868808068EA
:10228000180820302C03032C30200838C800C83828
:1022900008000000203F2000000010080808C8388F
:1022A00008002038262120201800000000FE02022D
:1022B00002000000007F40404000000C30C00000E1
:1022C0000000000000010638C00000020202FE000B
:1022D0000000004040407F000000000004020202B5
:1022E00004000000000000000000000000000000EA
:1022F00000008080808080808080000202040000D6
:1023000000000000000000000000000080808080CD
:1023100000000019242222223F2008F800808000BB
:102320000000003F112020110E000000008080807E
:102330000000000E11202020110000000080808885
:10234000F800000E112020103F20000080808080C7
:102350000000001F222222221300008080F08888C3
:1023600088180020203F202000000000808080800E
:102370008000006B94949493600008F80080808043
:102380000000203F210000203F200080989800009E
:1023900000000020203F20200000000000809898CE
:1023A000000000C08080807F000008F8000080806E
:1023B0008000203F24022D302000000808F8000093
:1023C00000000020203F202000008080808080804E
:1023D0008000203F20003F20003F808000808080E0
:1023E0000000203F210000203F20000080808080EE
:1023F0000000001F202020201F008080008080001F
:10240000000080FFA12020110E00000000808080CD
:102410008000000E112020A0FF808080800080803E
:10242000800020203F21200001000000808080806B
:1024300080000033242424241900008080E0808060
:1024400000000000001F20200000808000000080AD
:102450008000001F202020103F208080800000800E
:10246000808000010E30080601008080008000801E
:1024700080800F300C030C300F00008080008080C3
:1024800080000020312E0E312000808080000080EE
:10249000808080818E70180601000080808080809E
:1024A00080000021302C2221300000000000807CC0
:1024B000020200000000003F404000000000FF005A
:1024C000000000000000FF0000000002027C80000D
:1024D00000000040403F0000000000060101020231
:1024E00004040000000000000000303132333435B5
:1024F0003637383941424344454640305800303140
:10250000323334353637383961626364656640305A
:102510007800040000080000000000000002000134
:102520000000100002400000000000A000000000B9
:1025300005400000000000C8000000000C40000042
:102540000000409C00000000194000000020BCBEBC
:102550000000000034400000BFC91B8E00000004D2
:10256000B5400000504BCFD06607E2CF010000001D
:102570006C4100003E8251AADFEEA734010000004A
:10258000D9420000DCB5A0E23A301F97FFFFFFFF01
:10259000B4450000FD25A0C8E9A3C14FFFFFFFFF20
:1025A000FF3F00000000008000000000FF3F00002F
:1025B0000000008000000000F4250008000000205A
:1025C0001000000028010008042600081000002068
:1025D00060060000440100081C00000043000000E9
:1025E000F8FFFFFF0C0000000E0000000F000000CD
:1025F0002E0000000000000008000000000C014058
:0426000000010002D3
:04000005080000ED02
:00000001FF
