:0800030012160F12178080FB9A
:091A0D00D290D291C291C2902244
:071A1600C291D290D291228F
:0218D300AD075F
:1018D500E4FB74807E00A803088006CEA2E713CE41
:1018E50013D8F8FFEDF582EF558224FF9291D2903F
:0618F500C2900BBB08DCF1
:0118FB0022CA
:10198000D291E4FED29030910D7480A806088002B6
:0C199000C313D8FC4207C2900EBE08E84A
:01199C002228
:071A1D00C291D290C2902299
:0C19F400D291D290A2919202C290A20265
:011A000022C3
:10192100E4FDFCC3ED9FEC9E5016E4FBFA000BBBFB
:1019310000010AEB647B4A70F40DBD00010C80E3E9
:011941002283
:1019E100E4FDFCC3ED9FEC9E5008000DBD00010C11
:0219F10080F183
:0119F30022D1
:1018720047414D45204F56455220212121005343D7
:101882004F5245202D2D3E2000FFFFC3C3C3C3FF8F
:10189200FF0000000000000000007E7E7E7E7E7E53
:0118A2000045
:10184000E4F508E508C39564502774462508F8E6D2
:10185000FF74282508F8E675F008A4FD750C0875D6
:101860000DFF750E18750F9B7B081216E305088097
:01187000D2A5
:011871002254
:10160F007525017564037521067522067528057504
:10161F004603752904754703752A03754803121489
:10162F00A81219CD7FE87E031219211218FC121887
:10163F0040E52175F008A4FD750C08750DFF750EBA
:10164F0018750F8B7B08AF221216E3C200750801C5
:10165F007509C3750A50E4F50EF50D750C40750B41
:0B166F0041D20112125A8E268F272252
:10152A003092093094063095032093672092177FF2
:10153A000A7E001219212092033092FDE5256402E9
:10154A006004752501222094177F0A7E0012192152
:10155A002094033094FDE525640160047525022278
:10156A002095177F0A7E001219212095033095FDD8
:10157A00E52564046004752503222093167F147EF2
:10158A00001219212093033093FDE52564036003BB
:04159A00752504228D
:1013FF00E525B4010CE528B52107E5461465226003
:10140F0047E525B40215E528B52110E5462401FF6F
:10141F00E433FEEF65227001EE602DE525B4030C79
:10142F00E52814B52106E5466522601CE525640410
:10143F007066E5282401FFE433FEEF65217001EEAD
:10144F007056E54665227050E52175F008A4FD75CC
:10145F000C08750DFF750E18750F937B08AF2212D0
:10146F0016E31217337C007D081211C18D2112175C
:10147F00337C007D101211C18D2205640523E521F7
:10148F0075F008A4FD750C08750DFF750E18750F16
:09149F008B7B08AF221216E32238
:10167A0074452564F8E6FF74272564F8E675F008D2
:10168A00A4FD750C08750DFF750E18750F937B0870
:10169A001216E3E56414FFEFD39400401B74272F5E
:1016AA00F8E6FE74282FF8A60674452FF8E6FE74AD
:1016BA00462FF8A6061F80DFE52524FE600E14607B
:1016CA000F1460102403700E1546800A0546800622
:0916DA00152880020528021840C1
:10180A00E528F46010E546F4600BE52864106005ED
:10181A00E546B40802D3227F01EFC39564501574DC
:10182A00282FF8E6B5280A74462FF8E6B54602D3FB
:05183A00220F80E5C350
:01183F002286
:1017800012152AE524C3940A403EE4F52412180AEF
:1017900050301218FC7BFF7A187972D2007D0DE46C
:1017A000FF1217C97BFF7A187980D2007D0D7F0266
:1017B0001217C97BFF7A187980D2007D0D7F020253
:0917C00017C91213FF12167A2258
:03000B0002199D3A
:10199D00C0E0C0D0E526F58C85278AE524C3940ADE
:0C19AD0040037524000524D0D0D0E032A7
:10000E000000000000000000002F000000000700AC
:10001E00070000147F147F1400242A7F2A12006226
:10002E0064081323003649552250000005030000D2
:10003E0000001C224100000041221C000014083E5A
:10004E0008140008083E0808000000A06000000820
:10005E000808080800006060000000201008040274
:10006E00003E5149453E0000427F40000042615132
:10007E004946002141454B31001814127F100027CC
:10008E0045454539003C4A4949300001710905038F
:10009E0000364949493600064949291E00003636C0
:1000AE000000000056360000000814224100001423
:1000BE001414141400004122140800020151090600
:1000CE0000324959513E007C1211127C007F494981
:1000DE004936003E41414122007F4141221C007FB2
:1000EE0049494941007F09090901003E4149497AC0
:1000FE00007F0808087F0000417F4100002040413A
:10010E003F01007F08142241007F40404040007FA5
:10011E00020C027F007F0408107F003E4141413EE9
:10012E00007F09090906003E4151215E007F091931
:10013E0029460046494949310001017F0101003F2E
:10014E004040403F001F2040201F003F4038403FAE
:10015E000063140814630007087008070061514912
:10016E00454300007F41410000552A552A550000A5
:10017E0041417F0000040201020400404040404023
:10018E00000001020400002054545478007F4844BB
:10019E00443800384444442000384444487F0038F2
:1001AE005454541800087E0901020018A4A4A47C1B
:1001BE00007F080404780000447D400000408084E5
:1001CE007D00007F102844000000417F4000007C2D
:1001DE0004180478007C0804047800384444443839
:1001EE0000FC242424180018242418FC007C080485
:1001FE00040800485454542000043F444020003C5E
:10020E004040207C001C2040201C003C4030403CE4
:10021E00004428102844001CA0A0A07C0044645474
:10022E004C441414141414140000000000000000B8
:10023E000000000000000000000000F800000000B8
:10024E00000000333000000000100C06100C0600F9
:10025E00000000000000000040C07840C078400060
:10026E00043F04043F040400007088FC08300000C2
:10027E00001820FF211E0000F008F000E01800001A
:10028E0000211C031E211E0000F0088870000000D3
:10029E001E2123241927211010160E000000000025
:1002AE000000000000000000000000E01804020042
:1002BE00000000071820400000020418E0000000B3
:1002CE000040201807000000404080F080404000B1
:1002DE000202010F01020200000000F00000000007
:1002EE000101011F010101000000000000000000DB
:1002FE0080B0700000000000000000000000000050
:10030E0000010101010101010000000000000000D8
:10031E000030300000000000000000008060180473
:10032E00006018060100000000E010080810E00050
:10033E00000F102020100F00001010F80000000019
:10034E000020203F20200000007008080888700060
:10035E0000302824222130000030088888483000E0
:10036E000018202020110E000000C02010F8000000
:10037E0000070424243F240000F808888808080099
:10038E000019212020110E0000E0108888180000AE
:10039E00000F112020110E0000380808C838080080
:1003AE000000003F00000000007088080888700000
:1003BE00001C222121221C0000E010080810E00081
:1003CE000000312222110F00000000C0C00000000A
:1003DE00000000303000000000000080000000002F
:1003EE000000806000000000000080402010080027
:1003FE0000010204081020004040404040404000F0
:10040E0004040404040404000008102040800000CA
:10041E000020100804020100007048080808F000CF
:10042E000000003036010000C030C828E810E0009F
:10043E000718272423140B000000C038E00000002A
:10044E00203C23020227382008F888888870000094
:10045E00203F202020110E00C03008080808380068
:10046E00071820202010080008F808080810E000DF
:10047E00203F202020100F0008F88888E808100080
:10048E00203F20202320180008F88888E808100054
:10049E00203F200003000000C0300808083800008C
:1004AE0007182020221E020008F808000008F8088D
:1004BE00203F210101213F20000808F80808000014
:1004CE000020203F2020000000000808F808080047
:1004DE00C08080807F00000008F888C028180800BF
:1004EE00203F20012638200008F8080000000000F8
:1004FE00203F20202020300008F8F800F8F80800EF
:10050E00203F003F003F200008F830C00008F808E8
:10051E00203F200007183F00E01008080810E000F8
:10052E000F10202020100F0008F808080808F0000F
:10053E00203F210101010000E01008080810E00032
:10054E000F18242438504F0008F8888888887000C7
:10055E00203F2000030C3020007088080808380067
:10056E000038202121221C00180808F8080818005D
:10057E000000203F2000000008F808000008F808DE
:10058E00001F202020201F000878880000C838088F
:10059E00000007380E010000F80800F80008F80007
:1005AE00033C0700073C03000818688080681808A1
:1005BE0020302C03032C30200838C800C83808001F
:1005CE000000203F2000000010080808C83808006E
:1005DE002038262120201800000000FE0202020012
:1005EE000000007F40404000000C30C000000000C2
:1005FE00000000010638C00000020202FE000000EA
:10060E00004040407F00000000000402020204008F
:10061E0000000000000000000000000000000000CC
:10062E0080808080808080800002020400000000B4
:10063E0000000000000000000000808080800000AC
:10064E000019242222223F2008F80080800000009A
:10065E00003F112020110E0000000080808000005D
:10066E00000E112020201100000000808088F8006C
:10067E00000E112020103F2000008080808000009E
:10068E00001F222222221300008080F08888881802
:10069E000020203F2020000000008080808080000D
:1006AE00006B94949493600008F8008080800000A2
:1006BE00203F210000203F2000809898000000007D
:1006CE000020203F202000000000008098980000AD
:1006DE0000C08080807F000008F8000080808000CD
:1006EE00203F24022D302000000808F800000000F2
:1006FE000020203F202000008080808080808000AD
:10070E00203F20003F20003F80800080808000003E
:10071E00203F210000203F200000808080800000CC
:10072E00001F202020201F008080008080000000FD
:10073E0080FFA12020110E0000000080808080002C
:10074E00000E112020A0FF8080808000808080001D
:10075E0020203F212000010000008080808080004A
:10076E000033242424241900008080E080800000BF
:10077E000000001F2020000080800000008080000C
:10078E00001F202020103F2080808000008080806D
:10079E0000010E30080601008080008000808080FD
:1007AE000F300C030C300F00008080008080800022
:1007BE000020312E0E31200080808000008080804D
:1007CE0080818E70180601000080808080808000FD
:1007DE000021302C2221300000000000807C02021B
:1007EE0000000000003F404000000000FF0000003D
:1007FE0000000000FF0000000002027C80000000EC
:10080E000040403F00000000000601010202040407
:10081E0000000000000000000000000000000000CA
:10082E0000000080804060E08000000000000000BA
:10083E0000000000000000000000000000000000AA
:10084E00000000008000000000000000000000001A
:10085E00000000000000000000000000000000008A
:10086E00000000000000000000000000000000007A
:10087E00000000000000000000000000000000006A
:10088E00000000000000000000000000000000005A
:10089E00000000000000000000000000000000004A
:1008AE000C8283818080849C8001020204080810DF
:1008BE00306000000000000000000000000000009A
:1008CE00000080F00F10101010000000000000005B
:1008DE00000000000000800000000000C0000000CA
:1008EE0000000000000000000000E000000000001A
:1008FE0000000000000000000000000000000000EA
:10090E0000000000000000000000000000000000D9
:10091E0000000000000000000000000000000000C9
:10092E0000C00000000C06030100808000000000E3
:10093E0000000000000000061C30C00404C4FC00CF
:10094E0000000100212121212020A0E00000000054
:10095E00000000000000031CEC0404FF0504E43C4E
:10096E00000000000E70C0101808E9080C0404FC0A
:10097E0000000000000000000000FC00000000006D
:10098E000000F8081830E0000030E0000000000021
:10099E0080F01800000000000000000000000000C1
:1009AE0000FF010101C1BF8181011E030000000093
:1009BE000000000000000000000001030001010023
:1009CE000000000000000000E01C0300000000F02A
:1009DE0000000000000000000304023FC263311853
:1009EE0038600000000001000000FF3010180C04F9
:1009FE0000C070000000000000007F00000000C07A
:100A0E008000030E080C0700000001073C3018069A
:100A1E0003000000000000000000000000000000C5
:100A2E000001380C0300000000010102060404045A
:100A3E0004040000000000000000000000000000A0
:100A4E00000000000000000007080808080C04075A
:100A5E000000000000000000000203010000000082
:100A6E000000000000000000000001030206040662
:100A7E000301000000000000000000000000000064
:100A8E000000000000000000000000000000000058
:100A9E000000000000000000000000000000000048
:100AAE000000000000000000000000000000000038
:100ABE000000000000000070C08000000000000078
:100ACE000000000000000038C0808000F800000028
:100ADE00000000000000000000002020201010D0B8
:100AEE001008080808080C1CE000000000000000B8
:100AFE00000000041CF0008080C040407C6040403C
:100B0E0060200000000000F80E02028286820000C3
:100B1E0000000000000000000000000000000000C7
:100B2E0000000000000000000000000000000000B7
:100B3E0000000000000000040203C27E80804060BE
:100B4E00202000000109FD01031EF0000000F01836
:100B5E00000000000000000000037EC020212127BD
:100B6E007D61211000000000FF0000000000000069
:100B7E000000000000000FF000080404040202024E
:100B8E0002721E000000003FE58DE931382F6040F3
:100B9E0040400000000000000000000000000000C7
:100BAE000000000000000000000000000000000037
:100BBE000000000000000000000001010000000025
:100BCE000000000001010101010001070C0C0700EB
:100BDE000000000000000000000000030000000004
:100BEE0000000000000000080F00000000000000E0
:100BFE0000000000000000070000000000000000E0
:100C0E0000000000000000000701000000000000CE
:100C1E000000000000000000FFFFFFFFFFFFFFFFCE
:100C2E00FFFFFFFF7F3F1F1F8FCFC7E7F3F3F1F9E2
:100C3E00F8FCFCFCFCFCFCFCFCFC3D1818FE7F3FA9
:100C4E001F1F1F3F7FFFFFFFFEFEFCFCF8F1F3E3CB
:100C5E00C78F1F1F3F7FFFFFFFFFFFFF3F1F0FC706
:100C6E00E3F1F0F8FCFE7F7FFFFFFFFFFFFFFFFFCA
:100C7E00FFFFFFFFFFFFFFFF0700C0E0E1F0F0F016
:100C8E00F0F1F8F8F0F0F0E183071F7FFFE7C70FF0
:100C9E001F3FFFFEFCF8F0E10F07C1F01C0E8FFFA7
:100CAE00FFFFFFFF070080FCFFFFFFFFFFFFFFFFBF
:100CBE00FFFFFF7FFFFFFF010000FCFCFCFC7979CA
:100CCE0073E3870F3F1F8FE7F3F8C080839F1F1FCB
:100CDE003C3000030F3FFFFFFEFCFCF80000FFFF5F
:100CEE007F7F7F3F00003FFFFFFFFFFFFF030101FC
:100CFE004FC7E2C080193170F0F0FFFFFFF8F0F03F
:100D0E0070381F0040401F3F7FFFFFFFFFF8F0F0DD
:100D1E0070309EC2E0E0C1079F8FCFCFCCCCCCC449
:100D2E0000001CFEFCC0C0C1C1E1E1E1E1F0F0F049
:100D3E00F8FDFFFFFFFFFEFEFCFCFDFD0101387C10
:100D4E007C7E7E7E7E7E7E7E3C3C1810000CFCFC03
:100D5E00FEFFFFFFFFFFFF1E7979F1F1F1F1F1F9CF
:100D6E00F8F8100003070F1F3F3F3F1F1F1F1F1FE5
:100D7E001F1F0F0F0F0F0F0F0F0F1F1F1E1C181807
:100D8E0012123636262626367373797CFEFFFFFF47
:100D9E003F1F1F0F07032038FCFCFCF8F8F8F9F191
:100DAE00F103006060606060E0E0E0E0C0C08000E1
:100DBE000000000000000000000000000000000025
:100DCE000000000000000000000000000000008095
:100DDE0080C0C0E0E0E06000F8F9F1F3E3C7878F70
:100DEE001F3F0200000000000000000103030FFF80
:100DFE00FEF0020206060404040C0C0888C8F8F87B
:100E0E00C8C8080C0404040606020202F0FEFF0F16
:080E1E000703010100000000C0
:101942008F13121A0D7F781218D31219F4E4FF12B2
:1019520018D31219F4AF131218D31219F4021A166B
:1018A300F583E5822511F582E43583F583E493FF1F
:1018B3008F12121A0D7F781218D31219F47F401267
:1018C30018D31219F4AF121218D31219F4021A16FC
:101962008D12EF44B0FF121942E51254F0C4540F25
:0E1972004410FF121942E512540FFF021942F1
:1018FC00E4F509E4FDAF09121962E4F508E4FF12FE
:10190C0018B30508E508C3948040F20509E509C33E
:04191C00940840DF0C
:0119200022A4
:1014A800E4FFE4FE0EBE64FC0FBF64F67FAE1219C3
:1014B800427FD51219427F801219427FA812194221
:1014C8007F3F1219427FD3121942E4FF1219427F5B
:1014D800401219427FA11219427FC81219427FDABD
:1014E8001219427F121219427F811219427FCF12BC
:1014F80019427FD91219427FF11219427FDB121962
:10150800427F301219427FA41219427FA612194253
:101518007F8D1219427F141219427FAF12194202AD
:0215280018FCAD
:04159E008F0E8D0F10
:1015A200EB24E0F510121962300144E4F51175F0F4
:1015B20010E510A42436F582E5F034021218A305D2
:1015C20011E511C3940840E6E50E04FFAD0F1219B0
:1015D20062E4F51175F010E510A4243EF582E5F001
:1015E20034021218A30511E511C3940840E622E45F
:1015F200F51175F006E510A4240EF582E5F034002D
:0C1602001218A30511E511C3940640E680
:01160E0022B9
:0A17C9008F088D098B0A8A0B890C2A
:1017D300E4F50DAB0AAA0BA90C850D8275830012E3
:1017E3001194FB6021A2009201AD09AF0812159E6E
:1017F30074082509F509D394784007E4F509050829
:061803000508050D80CD73
:0118090022BC
:0616E3008F098D0A8B0B3C
:1016E900E4F511E50C131313541FFFE511C39F50C3
:1016F90038E5092511FFAD0A121962E4F510E51064
:10170900C3950B5020E511850BF0A42510F582E453
:1017190035F0F583AB0DAA0EA90F121194FF12181B
:09172900B3051080D9051180BA46
:011732002294
:1019B900750C40750DFF750E0C750F267B40E4FD07
:0419C900FF0216E320
:1019CD00750C40750DFF750E08750F267B80E4FDB7
:0419DD00FF0216E30C
:10125A003000030213305389F0E5087039AC09AD48
:10126A000A1210DAAB0EAA0DA90CA80B120F1EE473
:10127A00FBFA79407841121027A804A905AA06ABFF
:10128A0007E4FFFEFD7C46120E29121113AC06ADCF
:10129A000753047F802FE5086401702F438901AC4E
:1012AA0009AD0A1210DAAB0EAA0DA90CA80B120F7F
:1012BA001EE4FBFA794078411210271210C4121169
:1012CA0013AC06AD078C8C8D8A804CE508640270DD
:1012DA0009438902AC09AD0A8008438903AC09AD08
:1012EA000AE41210DAAB0EAA0DA90CA80B120F1EF3
:1012FA00E4FBFA79407841121027A804A905AA0646
:10130A00AB07E4FFFE7D807C43120E29121113AC59
:10131A0006AD078F8A8F8CD2A9D2AF2001030213A0
:10132A00FAD28C0213FA53890FE5087039AC09AD69
:10133A000A1210DAAB0EAA0DA90CA80B120F1EE4A2
:10134A00FBFA79407841121027A804A905AA06AB2E
:10135A0007E4FFFEFD7C46120E29121113AC06ADFE
:10136A000753047F802FE5086401702F438910AC6E
:10137A0009AD0A1210DAAB0EAA0DA90CA80B120FAE
:10138A001EE4FBFA794078411210271210C4121198
:10139A0013AC06AD078C8C8D8A804CE5086402700C
:1013AA0009438920AC09AD0A8008438930AC09ADEC
:1013BA000AE41210DAAB0EAA0DA90CA80B120F1E22
:1013CA00E4FBFA79407841121027A804A905AA0675
:1013DA00AB07E4FFFE7D807C43120E29121113AC89
:1013EA0006AD078F8A8F8CD2ABD2AF300102D28E74
:0413FA00AE04AF0589
:0113FE0022CC
:100E260002117FE86480F8E933E83360110460F06A
:100E3600ED33EC337009E8FCE9FDEAFEEBFF220432
:100E460060DED3EB9FEA9EE99DE8C2E78CF0C2F72D
:100E560095F0400CE8CCF8E9CDF9EACEFAEBCFFBF9
:100E660012114A85D0F05804700320D5B3E80470F7
:100E7600075002B2D502118992D5EC0460F7E4CC92
:100E8600C0E0C398F8603B94186008400DD0E0FBC2
:100E9600021161E4FBFAC9FC8028E830E406E4C9E3
:100EA600FBE4CAFCE830E305E4C9CACBFCE8540716
:100EB6006010F8C3E913F9EA13FAEB13FBEC13FC21
:100EC600D8F130F52FC3E49CFCEF9BFFEE9AFEEDC4
:100ED60099FDD0E0FBEF4E4D4C701222DB03021160
:100EE60086EC2CFCEF33FFEE33FEED33FDED30E701
:100EF600EB021161EF2BFFEE3AFEED39FDD0E0FB80
:100F060050130BBB0003021189ED13FDEE13FEEF28
:080F160013FFEC13FC02116152
:100F1E00EC4D6011E8497017ED33EC3304600DE4CD
:100F2E00FCFFFEFD22E933E8330470F802117F1254
:100F3E00114A58046009E4CC248150062850090255
:100F4E001189284003021186C0E0EB4A7044B98033
:100F5E0006D0E0FB021175EF4E701CBD8008EBFF52
:100F6E00EAFEE9FD80EBE98DF0A4FEE5F002100744
:100F7E00E9CDF9EAFEEBFFEF89F0A4FCE5F0CE89AE
:100F8E00F0A42EFFE435F0CD89F0A42DFEE435F06B
:100F9E008067EF4E7005BD80D780C3EF8BF0A4AC99
:100FAE00F0EE8BF0A42CFCE435F0F8EF8AF0A42CD4
:100FBE00E5F038FCE433CB8DF0A42CFCE5F03BF8E7
:100FCE00EE8AF0A42CFCE5F038F8E433CF89F0A4D7
:100FDE002CFCE5F038CF3400CE89F0A42FFFE5F0DD
:100FEE003EFEE433C98DF0A42EFEE5F039CD8AF035
:100FFE00A42FFFE5F03EFEE43DFD33D0E0FB5007AD
:10100E000BBB000F021189EC2CFCEF33FFEE33FE0D
:06101E00ED33FD0211613B
:10102400021189EC5D046005E85904700302117F24
:1010340012114A580460F6EC4860F2EC7004FDFEAC
:10104400FF22C860DB2481C85009C398600250069F
:101054000211869850CAF582E9294B4A7005AB8281
:1010640002117575F0007C1A7880C3EF9BEE9AED3F
:1010740099400DC3EF9BFFEE9AFEED99FDE842F017
:10108400DC23ACF0D0E0FFD0E0FED0E0FDAB82206A
:10109400E7101BEB60BAEC2CFCEF33FFEE33FEEDF4
:1010A40033FD021161E803F830E705C0F075F00084
:1010B400EF2FFFEE33FEED33FD40B830E7C280AAD8
:1010C400ED33EC33600A047003BD8004ECB2E7FC3A
:0110D40022F9
:1010D50075F020800E75F010800575F0087D007E96
:1010E500007F003392D530D5031211F7EC33401051
:1010F500EF33FFEE33FEED33FDEC33FCD5F0ED229F
:0E110500E5F0247EA2D513CC92E7CDCEFF22DA
:10111300EDD2E7CD33EC3392D524814006E4FFFED4
:10112300FDFC22FCE4CFCECDCC24E0501174FF8033
:10113300EDC3CC13CCCD13CDCE13CECF13CF0470D0
:07114300F030D5DE0211F7C8
:10114A00E9D2E7C933E833F892D5EDD2E7CD33ECEB
:07115A0033FC5002B2D52264
:10116100EC30E7100FBF000C0EBE00080DBD0004EF
:101171000BEB6014A2D5EB13FCED92E7FD2274FF9B
:10118100FCFDFEFF22E480F8A2D574FF13FC7D80F4
:03119100E480EF08
:03000000021A01E0
:0C1A0100787FE4F6D8FD758164020003D4
:10119400BB010CE58229F582E5833AF583E0225010
:1011A40006E92582F8E622BBFE06E92582F8E2225A
:0D11B400E58229F582E5833AF583E4932274
:1011C100C2D5EC30E709B2D5E4C39DFDE49CFCEE49
:1011D10030E715B2D5E4C39FFFE49EFE121205C3AA
:1011E100E49DFDE49CFC800312120530D507C3E4A5
:0611F1009FFFE49EFE22B8
:0E11F700C3E49FFFE49EFEE49DFDE49CFC2209
:10173300AC14AD15AE16AF177810EC4D4E4F7004C8
:101743007CA57DA5C3EC13FCED13FDEE13FEEF1397
:10175300FF5010EC64CCFCED644CFDEE644EFEEFE8
:1017630064CEFFD8DF8C148D158E168F17EE547F41
:0D177300FE228E148F1574A5F516F51722B1
:10120500BC000BBE0029EF8DF084FFADF022E4CCCD
:10121500F875F008EF2FFFEE33FEEC33FCEE9DEC96
:10122500984005FCEE9DFE0FD5F0E9E4CEFD22EDDC
:10123500F8F5F0EE8420D21CFEADF075F008EF2F26
:10124500FFED33FD4007985006D5F0F222C398FD17
:051255000FD5F0EA22B4
:00000001FF
