:020000040800F2
:10000000A8060020A10100082B1800089113000881
:10001000271800080F120008CD1C0008000000007F
:100020000000000000000000000000005919000856
:10003000131200080000000041180008451A0008CB
:10004000BB010008BB010008BB010008BB010008A0
:10005000BB010008BB010008BB010008BB01000890
:10006000BB010008BB010008BB010008BB01000880
:10007000BB010008BB010008BB010008BB01000870
:10008000BB010008BB010008BB010008BB01000860
:10009000BB010008BB010008BB010008BB01000850
:1000A000BB010008BB010008BB010008BB01000840
:1000B000BB010008BB010008BB010008BB01000830
:1000C000BB010008BB010008BB010008BB01000820
:1000D000BB010008BB010008BB010008BB01000810
:1000E000BB010008BB010008BB01000800F002F8DA
:1000F00000F047F80AA090E8000C82448344AAF17B
:100100000107DA4501D100F03CF8AFF2090EBAE878
:100110000F0013F0010F18BFFB1A43F0010318473B
:10012000F432000014330000103A24BF78C878C1BC
:10013000FAD8520724BF30C830C144BF04680C60ED
:10014000704700000023002400250026103A28BF35
:1001500078C1FBD8520728BF30C148BF0B60704739
:10016000662903F04280002070471FB500F00EFBA7
:1001700004000020002102F003F9E0601FBD10B56B
:1001800010BD00F007FC1146FFF7EFFF01F0FCFF88
:1001900000F025FC03B4FFF7F2FF03BC00F068FC9D
:1001A0000948804709480047FEE7FEE7FEE7FEE70B
:1001B000FEE7FEE7FEE7FEE7FEE7FEE70448054947
:1001C000054A064B70470000491A0008ED00000878
:1001D000A8000020A8060020A8020020A8020020F5
:1001E0000FB41CB5074B06AA7B44694600900598DE
:1001F00000F0B3FA0020694600F0C2FA1CBC5DF8BA
:1002000014FB0000950500002DE9F0474FF0000AAF
:1002100089460446C0F820A02046E16888470028A7
:1002200076D0252806D0D4E901219047206A401CC9
:100230002062F1E7E168204600258847C4F81CA049
:1002400006460027C4F818A02A2E09D0304601F02F
:10025000B5FD38B304EB8708303EC8F8186019E0E4
:1002600059F8041B204604EB87029161E168884736
:10027000012F064618D1E069002820DA25F0200574
:100280001DE0D8F8180000EB800006EB4000303885
:10029000C8F818002046E1688847064601F08EFD40
:1002A0000028EED1012F0AD02E2E08D12046E16879
:1002B00088477F1C0646022F45F02005C4DBA06955
:1002C000002803DA404245F00105A061E80701D0AB
:1002D00025F01005B6B1A6F14100192802D8203644
:1002E00045F400654A463146204625604D46FFF7F5
:1002F00037FF58B1012806D0ED1D25F0070000F1A9
:10030000080989E704E005F1040985E730468AE732
:10031000206ABDE8F08770477047704710B500F05D
:1003200039FA006810BD10B5044600F033FA0460D5
:1003300010BD70472DE9FF4F0C461E464FF0FF37AA
:100340008BB0D2E90001DDF860800A908A46C1F3E3
:100350000A5505B93D46002108464FF00000BAF1A4
:10036000000F00F4400005DA00EB80004FF440017C
:1003700001EA50004FEA9059B9F1010F00DDB9468A
:100380000A9850EA4A000ED044F61050A5F2FF3504
:1003900045432F14B8F1000F1ED07542291E1EDDF3
:1003A000C9F100021CE0B8F1010F4FF0000001D0CC
:1003B000302103E0F24305E02154401CB042FBDB56
:1003C00030460022002121540B99C1F80880C1E970
:1003D00000200FB0BDE8F08FBD1B6D1CDEE74A4664
:1003E00000DA694206A800F05FFA06AB93E807005E
:1003F00003AB83E8070050460A9900F040FB8DE804
:100400000700A0F500501F3800900398002D0ADD6A
:1004100042F21F014A460844002303A9039068469C
:1004200000F0A9FD09E0A0F500504A461F3800235E
:1004300003A90390684600F0B3FD8DE807000004AF
:10044000000C03D04FF0FF30410800E01046B8F137
:10045000000F03D00022009215461EE0751E05D441
:1004600000F09CF9303262556D1EF9D5B346012279
:10047000084302D000227F1C04E02078302801D1FC
:1004800000227F1E002A099784D01DE0112D07DA73
:1004900000F084F9303262556D1C50EA0102F5D14A
:1004A000084302D00098C8B10EE00021681E05E0A4
:1004B000235C625C63542254401E491C8142F7DB7A
:1004C000AB46A81B401E0990002004F80B000B98B7
:1004D000099AC0F80880C0E9002B7AE711264FF08E
:1004E000000857E72DE9F04F88460446D21D22F058
:1004F000070191B0D1E90001CDE90A0101F0E8FB63
:1005000002460B98C00F01D02D2007E0206881071C
:1005100001D52B2002E0202101EAC000032A099026
:1005200001D0072A05DB03464146204600F07CF94E
:100530000BE12078800601D5E06900E00620B8F1E3
:10054000650F814606D0B8F1660F18D0B8F1670F75
:1005500070D131E00020B9F1110F009001DB1123BF
:1005600001E009F101030AAA01A90CA8FFF7E2FEC4
:10057000DDE90C70002609F10105834647E0012002
:100580004B4600904FF000470AAA01A90CA8FFF7BC
:10059000D1FEDDE90DB00C995D46002610B909F1D8
:1005A00001000D18B9EB050003D4C0F1FF3609F1C5
:1005B0000105A5EB09002BE0B9F1010F01DA4FF0BD
:1005C00001090020B9F1110F0090484601DD112307
:1005D00000E003460AAA01A90CA8FFF7ABFEDDE97B
:1005E0000C704D4600268346207800070AD4AB45A0
:1005F00000DA5D4601A8012D04DD411911F8011C46
:10060000302907D04F4502DA17F1040F04DA012030
:1006100082460FE06D1EEEE7002F02DCED1B3E442C
:1006200003E0781CA84200DD7D1CB81B00F1010A24
:100630004FF000472078000703D4AA4501DB4FF0B4
:10064000FF3A0021B7F1004F0DF143088DF8431038
:1006500024D002202B23002F01DA7F422D230A21F0
:10066000021EA0F1010000DC5FB197FBF1FC97FBDB
:10067000F1F201FB1C7C17460CF1300C08F801CD9F
:10068000EEE7A8F1010003702188090501D5452195
:1006900000E06521A0F1010800F8011C09980FA9EC
:1006A000A1EB0807FF1D00B10120411901EBEA7021
:1006B000A1693844081A401EA0612078C00602D4FF
:1006C0002046AFF30080099828B1D4E90121904772
:1006D000206A401C20622078C00622D52046AFF355
:1006E00000801EE0002E04DBB34502DD01A8805D22
:1006F00000E03020D4E901219047206A401C2062AC
:10070000761CAAF101005FEA000A0AD100F03EF867
:10071000C0680168405CD4E901219047206A401C10
:100720002062281EA5F10105DCDC07E0D4E90121E7
:1007300018F8010B9047206A401C2062381EA7F170
:100740000107F3DC2046AFF30080032011B041E63F
:1007500001694A1C02610878704700B58FB0CDE985
:1007600001310021059105497944CDE90310114675
:100770006846FFF749FD0FB000BD0000E5FFFFFF31
:100780000A6802F8010B0A607047000000487047D1
:1007900064000020004870474400002030B5B0F1EC
:1007A0000A024FEA900E71F100034EEA817EB0EB2F
:1007B0000E0061EB91014FEA101E4EEA017E10EB34
:1007C0000E0041EB11114FEA102E4EEA016E10EBB4
:1007D0000E0041EB11214FEA104E4EEA014E10EB94
:1007E0000E0041EB1141401841F100014FEAD000E9
:1007F00040EA41704FEAD10110EB80054FEA8104D5
:1008000044EA907444EB01046D1944EB0404521B58
:10081000A3414FF0000348BF0A3200D530BD401C51
:1008200041F1000130BD00002DE9F0411F460446B2
:1008300003260168072A01F4006004DB08B116A54D
:1008400005E016A503E008B115A500E015A521F007
:1008500010002060A069C01EA0610FB1401EA06101
:100860002046AFF300804FB1D4E9012138469047CC
:10087000206A401C2062C01C206206E0206AFAE761
:10088000D4E9012115F8010B9047761EF8D22046D5
:10089000AFF30080BDE8F0814E414E006E616E0006
:1008A000494E4600696E66002DE9F04781461646BE
:1008B0008AB0354878440DC88DE80D003248784438
:1008C000801C03AC0DC884E80D0041F69B30084441
:1008D000372190FBF1F290FBF1F5A5F1800501FBCA
:1008E00012041B3C02D56442012000E00020DFF826
:1008F00098A080460027FA44AAF1BE0A0EE0E0075D
:100900000AD03246684607EB470101230AEB810112
:1009100000F046FB8DE8070064107F1C002CEED130
:10092000194F7F44AE3F19E0E80715D007EB0410DC
:100930000DF1180A90E80E008AE80E00C068F04237
:1009400001D1981908903246012306A903A800F0A6
:1009500027FB03AB83E807006D10641C002DE3D177
:100960004FF0010332466946B8F1000F03A802D0E8
:1009700000F001FB01E000F013FBC9E90001C9F838
:1009800008200AB0BDE8F087442B000000487047FB
:10099000440000207546FFF7F9FFAE4605006946A2
:1009A000534620F00700854618B020B5FFF706FC37
:1009B000BDE820404FF000064FF000074FF0000860
:1009C0004FF0000B21F00701AC46ACE8C009ACE8E1
:1009D000C009ACE8C009ACE8C0098D46704710B545
:1009E0000446AFF300802046BDE81040FFF7D2BBBD
:1009F0004FF0013C50F8042B51F8043B9A4221D1AE
:100A0000A2EB0C03934313EACC1317D150F8042B39
:100A100051F8043B9A4215D1A2EB0C03934313EA1D
:100A2000CC130BD150F8042B51F8043B9A4209D156
:100A3000A2EB0C03934313EACC13DBD04FF000007E
:100A4000704700BFD01A01BAB1FA81F101F0180164
:100A500022FA01F0CB40C1F12001DBB2C0B2C01AD2
:100A60002CFA01F3D11A914311EAC311E6D1704770
:100A700001491820ABBEFEE72600020070475FEA7E
:100A8000400C08BF91F0000F4FEA8C234FEAC122BF
:100A900043EA51514FEA1C5018BF00F5F0404FEAAD
:100AA000300018BF41F000415FEA6C5C00F0298023
:100AB000BCF1FF3F08BF40F080407047130C06BFF9
:100AC00012044FF0100C4FF0000C130E04BF120272
:100AD0000CF1080C130F04BF12010CF1040C930F5E
:100AE00004BF92000CF1020CD30F04BF52000CF1B2
:100AF000010C11464FF00002A0F11F00A0EB0C000A
:100B0000704711F0004F08BF704731F000413FF4CB
:100B1000D5AF0B0C06BF09044FF0100C4FF0000CC2
:100B20000B0E04BF09020CF1080C0B0F04BF0901E6
:100B30000CF1040C8B0F04BF89000CF1020CCB0FDD
:100B400004BF49000CF1010CCCF12003A0EB0C0018
:100B500022FA03F302FA0CF241EA030100F1010068
:100B6000704720F07F4C80EA030023F07F47ACEB16
:100B7000070303F57C5300F0004003F1FF032DE968
:100B800080494FEA154B09B44FEA144325EA0B4E4E
:100B900024EA03480FF2042606EB132749083E789F
:100BA0005FEA320203FB0667C7F5000707FB06F69C
:100BB0004FEA54374FEAD64606F1020607FB066CA9
:100BC000CCF1005C4FEA1C472CEA074C07FB06F40B
:100BD0000CFB06F504EB15464FEA961634BF0020D1
:100BE0004FF000404FEAD13706FB07FC4FEA1C4CA0
:100BF0000CFB0BF7D21B03FB0CF761EB07010CFBA3
:100C00000EF7B0EB074072EB17420CFB08F734BF4E
:100C1000A2EB0742B2EB074261EB17414FEA0C44EB
:100C20004FEA910706FB07FC4FEA1C4C0CFB0BF745
:100C3000B0EBC74072EB573203FB0CF734BFA2EBAB
:100C4000C742B2EBC74261EB57310CFB0EF7B0EB7A
:100C5000C70072EB57720CFB08F734BFA2EBC70258
:100C6000B2EBC70261EB5771039F4FEA816141EA22
:100C7000921104EBCC044FEAD1374FEA826206FBB3
:100C800007FC42EA90124FEA80604FEA1C4C0CFBD2
:100C90000BF7D21B03FB0CF761EB07010CFB0EF704
:100CA000B0EB074072EB17420CFB08F734BFA2EB26
:100CB0000742B2EB074261EB17414FEA8C554FEA0E
:100CC000910704EB9C2406FB07FC4FEA1C4C0CFB31
:100CD0000BF7B0EBC74072EB573203FB0CF734BF96
:100CE000A2EBC742B2EBC74261EB57310CFB0EF7E8
:100CF000B0EBC70072EB57720CFB08F734BFA2EBE6
:100D0000C702B2EBC70261EB577115EB4C254FEAF6
:100D1000816141EA92114FEA82624FEAD13742EA99
:100D2000901206FB07FC44F100044FEA80604FEA92
:100D30001C4C0CFB0BF7D21B03FB0CF761EB070100
:100D40000CFB0EF7B0EB074072EB17420CFB08F7F9
:100D500034BFA2EB0742B2EB074261EB174115EB40
:100D60001C154FEA813141EA92414FEA823242EA50
:100D700090424FEA80304FEA0C7644F1000448EA92
:100D800003434EEA0B484FF0000EB2EB080C71EB38
:100D9000030724BF624639464EEB0E0E4FF0000BA0
:100DA0000018524149414BEB0B0BB2EB080C71EBB5
:100DB00003077BF1000B24BF624639464EEB0E0E53
:100DC0004FF0000B0018524149414BEB0B0BB2EBBB
:100DD000080C71EB03077BF1000B24BF6246394618
:100DE0004EEB0E0E51EA020718BF46F0010616EB55
:100DF0000E7655F1000254F1000103D5BDE88901DA
:100E0000BDE80088BDE88901BDE80048B619524137
:100E100041EB0101A3F10103704780807F7E7D7C5F
:100E20007B7A7978777676757473727171706F6E7C
:100E30006E6D6C6C6B6A6A69686867666665646427
:100E4000636362616160605F5F5E5E5D5D5C5C5BB1
:100E50005B5A5A5959585857575656555555545420
:100E6000535352525251515050504F4F4F4E4E4D7E
:100E70004D4D4C4C4C4B4B4B4A4A4A4949494848CA
:100E8000484747474746464645454544444444430A
:100E900043434342424242414141002B9C4630D4AD
:100EA00077002BD01CB54FEA370703B44FF0100082
:100EB0004FF01001BAF1000F06D0BCF1000FDCBFFB
:100EC00040F0080040F008014FF000000FBCBDE802
:100ED00010400BF1010BBBF1010F08BF5FEA1707D0
:100EE00022BF12F1010211F101014FF0004143F163
:100EF000000300F0004043EA00007047F9D35708B0
:100F0000D0E746EA064613F1400F4FEA16461FDDCA
:100F100013F1200FDFBF16430A46002120335B4246
:100F2000BED0C3F1200746EA064602FA07F74FEAA9
:100F3000164646EA0706C3F1200722FA03F201FA31
:100F400007F721FA03F14FF0000342EA0702A7E78F
:100F500046EA020646EA06464FEA164646EA010611
:100F6000BCBF46EA0646360C4FF000034FF00002C5
:100F70004FF0000194E72DE9804C9A46934670B4F7
:100F800091E8380007C831EA400C48BF34EA430C06
:100F900003D5FFF7E6FDFFF780FFF0BCBDE8008C4E
:100FA0002DE9804C9A46934670B491E8380007C802
:100FB00010F0804F08BF13F0804F03D100F005F808
:100FC000FFF76BFFF0BCBDE8008C20F07F4780EAA4
:100FD000030023F07F4C07EB0C03A3F57C5300F0D8
:100FE0000040A3F1FE0392F0000F00F0B38095F0F3
:100FF000000F00F077802DE901494FEA11404FEAD8
:10100000144621EA004800FB06FC24EA064708FBD8
:1010100006F607FB08F800FB07F718EB06484CEB51
:10102000164C4FEA124B18EB07484FEA15464CEBAB
:10103000174022EA0B4E0BFB06FC25EA06470EFB87
:1010400006F607FB0EFE0BFB07F71EEB064E4CEBFE
:10105000164C4FF000061EEB074E4CEB174B18EBEF
:101060000B0840F1000018EB0E0B58EB000840F1A4
:1010700000008F1A4FF000013CBFC943661B14BF2C
:10108000B5EB040C00213CBFC943F61B4FEA1744E3
:101090004EEA8E0E27EA04454FEA1C4704FB07621E
:1010A0002CEA074C05FB07F70CFB05F604FB0CFCD0
:1010B00016EB074642EB174216EB0C4642EB1C427E
:1010C0001BEB060658EB0202414146EA9E0601D59B
:1010D000BDE80189B619524141EB0101A3F10103B9
:1010E000BDE801894FEA14454FEA114724EA054655
:1010F00021EA074C05FB07F406FB07F70CFB06F19A
:1011000005FB0CFC11EB074144EB17444FEA124777
:1011100011EB0C4144EB1C4422EA074C05FB07F29F
:1011200006FB07F70CFB06F605FB0CFC16EB074667
:1011300042EB174216EB0C4642EB1C456A1854F181
:10114000000148BF7047B619524141EB0101A3F1BC
:101150000103704795F0000F37D04FEA11424FEA74
:10116000144721EA024624EA074C02FB07F106FB7A
:1011700007F70CFB06F402FB0CFC14EB074441EBF5
:1011800017414FEA154714EB0C4441EB1C4125EA8B
:10119000074C02FB07F506FB07F70CFB06F602FB04
:1011A0000CFC16EB074645EB174516EB0C4645EBDA
:1011B0001C42121951F1000148BF7047B619524143
:1011C00041EB0101A3F1010370474FEA14454FEAD7
:1011D000114724EA054621EA074C05FB07F106FB07
:1011E00007F70CFB06F24FF0000605FB0CFC12EBB8
:1011F000074241EB174112EB0C4251EB1C4148BF37
:101200007047921841EB0101A3F10103704700BF41
:10121000FEE7704700B5034603E04FF47A7000F034
:1012200005F8181EA3F10103F7D100BD00EBC001C2
:10123000C9004FF0E0225161002191610521116147
:1012400000BF4FF0E021096901F480310029F8D096
:1012500004214FF0E022116170472DE9F041024670
:1012600000250026002000230024002791F803C059
:101270000CF00F0591F803C00CF0100CBCF1000F3E
:1012800003D091F802C04CEA050591F800C0BCF10A
:10129000000F31D0146800202BE04FF0010C0CFA45
:1012A00000F3B1F800C00CEA03069E4220D183008F
:1012B0004FF00F0C0CFA03F7BC4305FA03FC4CEAA1
:1012C000040491F803C0BCF1280F06D14FF0010CC3
:1012D0000CFA00FCC2F814C00AE091F803C0BCF19B
:1012E000480F05D14FF0010C0CFA00FCC2F810C0F9
:1012F000401C0828D1D31460B1F800C0BCF1FF0F26
:1013000034DD546800202EE000F1080C4FF0010895
:1013100008FA0CF3B1F800C00CEA03069E4221D192
:1013200083004FF00F0C0CFA03F7BC4305FA03FCE3
:101330004CEA040491F803C0BCF1280F05D100F178
:10134000080C08FA0CF8C2F8148091F803C0BCF13C
:10135000480F07D100F1080C4FF0010808FA0CF80B
:10136000C2F81080401C0828CED35460BDE8F0813C
:101370000246002093680B400BB1012000E00020E2
:101380007047016170470AB1016100E04161704737
:1013900000BFFEE770B505254FF400610548FFF773
:1013A000E7FF044600BF281EA5F10101CDB2FAD126
:1013B000204670BD000C014070B50446052522464C
:1013C0004FF480610448FFF7DEFF00BF281EA5F13F
:1013D0000101CDB2FAD170BD000C014070B50446D8
:1013E000052522464FF400610448FFF7CCFF00BFFB
:1013F000281EA5F10101CDB2FAD170BD000C01404B
:1014000008B50121082000F02DFA14208DF8030002
:1014100003208DF802008002ADF800006946044800
:10142000FFF71BFF4FF440610148FFF7AAFF08BD1B
:10143000000C014000B585B0012144F2040000F029
:1014400011FA4FF40070ADF8000018208DF8030079
:1014500003208DF8020069461348FFF7FEFE4FF4A3
:101460008060ADF8000004208DF8030069460E4846
:10147000FFF7F3FE0020ADF80800ADF80A00ADF864
:1014800010004FF4E13001900020ADF80C0008206E
:10149000ADF80E0001A9054800F0ACFB012103489E
:1014A00000F09CFB05B000BD000801400038014081
:1014B0002DE9F04F8BB03B2000F07FF904463C2033
:1014C00000F07BF9814649EA042108B201F034FDBD
:1014D00005464FF08D4101F06DFC9D4908603D20AF
:1014E00000F06BF904463E2000F067F9814649EAB6
:1014F000042108B201F020FD05464FF08D4101F0B6
:1015000059FC934948603F2000F057F904464020B9
:1015100000F053F9814649EA042108B201F00CFDBC
:1015200005464FF08D4101F045FC89498860432014
:1015300000F043F90446442000F03FF9814649EAAF
:10154000042108B201F0F8FC0546824901F032FCA2
:101550007F49C860452000F030F90446462000F07D
:101560002CF9814649EA042108B201F0E5FC054660
:10157000784901F01FFC76490861472000F01DF909
:101580000446482000F019F9814649EA042108B2CE
:1015900001F0D2FC05466F4901F00CFC6C49486132
:1015A000412000F00AF90446422000F006F9814685
:1015B00049EA042108B201F0BFFC0646664901F081
:1015C000F9FB0546654901F093FB6149886188682C
:1015D00001F062FB05460E465D49486801F05CFB80
:1015E00007462A46334600F001FD00225C4BCDE958
:1015F000000101F05DF94FF000425A4BCDE90201C4
:1016000000F0C2FFCDE9040100F0D0FE824650494F
:10161000886801F041FB05460E464D49086801F017
:101620003BFB07462A46334600F0E0FC81F00041D0
:1016300000224B4BCDE9000101F03AF94FF0004296
:10164000484BCDE9020100F09FFFCDE9040100F015
:10165000ADFE83463E49486901F01EFB424A434BBA
:10166000CDE9020101F024F905460E463849C86962
:1016700001F012FB07462A46334600F0C9FECDE9C9
:10168000040100F093FE09903149C86801F004FBA1
:10169000354A364BCDE9020101F00AF9CDE90401E2
:1016A0002B49086A01F0F8FA0546DDE9042300F049
:1016B000AFFE074600F07AFE08902549086901F060
:1016C000EBFA0546284A294B01F0F2F8CDE904016E
:1016D0001F49486A01F0E0FACDE90201DDE904237F
:1016E00000F096FE074600F061FE07902048069045
:1016F0002048007838B11648C0F820A0C0F824B0BF
:1017000000201C49087012490998C8611A480899B4
:1017100001F02AFC05465146154801F025FC064615
:10172000294601F0E5FA0A4908621348079901F0D1
:101730001BFC054659460E4801F016FC0646294694
:1017400001F0D6FA0249486208460BB0BDE8F08FB6
:101750001C000020333383410000AA43B81E12420C
:1017600000806640FB2109407B14AE47E17A843F4C
:10177000A4707D3F0400002000D7233C10B5FFF784
:101780003FFE80216B2000F037F86420FFF742FD18
:1017900000216B2000F030F80421192000F02CF813
:1017A00000211C2000F028F818211B2000F024F84C
:1017B0004FF4FA70FFF72EFD10BD70B5044600F02F
:1017C000C3FDD02000F09FFD00F08EFD204600F00C
:1017D0009AFD00F089FD00F0B7FDD12000F093FDE7
:1017E00000F082FD00F066FD0546012000F0A0FD3E
:1017F00000F0B8FD284670BD70B505460C4600F0F7
:10180000A3FDD02000F07FFD00F06EFD284600F023
:101810007AFD00F069FD204600F075FD00F064FDE2
:1018200000F0A0FD70BD00BFFEE770470249014314
:10183000024A1160704700000000FA050CED00E05C
:101840007047000029B1064AD2690243044BDA61AD
:1018500004E0034AD2698243014BDA617047000019
:101860000010024029B1064A92690243044B9A6172
:1018700004E0034A92698243014B9A617047000079
:101880000010024030B500210022002400232D4D1D
:101890006D6805F00C0121B1042905D0082923D178
:1018A00005E0294D056022E0274D05601FE0254D2C
:1018B0006D6805F47012234D6D6805F480340225BF
:1018C00005EB92421CB9214D554305600BE01D4DBF
:1018D0006D6805F400351DB11C4D5543056002E0EF
:1018E000194D5543056002E0174D056000BF00BF6C
:1018F000144D6D6805F0F0010909154D6B5C056824
:10190000DD4045600F4D6D6805F4E061090A104D3A
:101910006B5C4568DD4085600A4D6D6805F460517B
:10192000C90A0B4D6B5C4568DD40C560054D6D68AF
:1019300005F44041890B074D6B5CC568B5FBF3F5B9
:10194000056130BD0010024000127A0000093D0020
:101950000500002015000020704710B500F002F8C7
:1019600010BD00000CB500200190009033480068C5
:1019700040F480303149086000BF3048006800F40E
:10198000003000900198401C0190009818B901980F
:10199000B0F5A06FF1D12948006800F4003010B113
:1019A0000120009001E0002000900098012843D120
:1019B0002348006840F0100021490860084600688C
:1019C00020F0070008600846006840F00200086048
:1019D0001A48406819494860084640684860084607
:1019E000406840F4806048600846406820F47C10FD
:1019F00048600846406840F4E810486008460068BF
:101A000040F08070086000BF0C48006800F0007073
:101A10000028F9D00948406820F0030007494860D1
:101A20000846406840F00200486000BF0348406834
:101A300000F00C000828F9D10CBD00000010024095
:101A4000002002407047000010B51348006840F0C5
:101A500001001149086008464068104908400E49D5
:101A60004860084600680E4908400B49086008466F
:101A7000006820F4802008600846406820F4FE00DA
:101A800048604FF41F008860FFF767FF4FF0006069
:101A90000449086010BD0000001002400000FFF87B
:101AA000FFFFF6FE08ED00E00EB501210846FFF746
:101AB000C9FE41F61F40ADF800006320ADF80400F8
:101AC0000020ADF80600ADF8020069464FF08040F6
:101AD00000F01EF80121880700F004F80EBDCA438B
:101AE0000282704721B1028842F00102028004E0C4
:101AF00002884FF6FE731A400280704702460020AB
:101B0000138A0B400BB1012000E000207047000059
:101B1000002202881D4B98420ED01D4B98420BD0DC
:101B2000B0F1804F08D01B4B984205D01A4B984219
:101B300002D01A4B984204D14FF68F731A404B884B
:101B40001A43174B984207D0164B984204D04FF6D1
:101B5000FF431A40CB881A4302808B8883850B8809
:101B600003850A4B98420BD0094B984208D00E4B84
:101B7000984205D00D4B984202D00D4B984201D1AE
:101B80000B7A03860123838270470000002C0140FA
:101B9000003401400004004000080040000C0040F8
:101BA000001000400014004000400140004401408B
:101BB000004801400BE000BF0749098801F080019F
:101BC0000029F9D010F8011B034A121D1180017879
:101BD0000029F0D1704700000038014021B182890E
:101BE00042F40052828104E082894DF6FF731A406C
:101BF000828170472DE9F04786B005460E460024E5
:101C0000A24600BFA1460027B08900B100BF2F4601
:101C10002C8A4CF6FF700440F08804432C82AC8977
:101C20004EF6F3100440B0883189084371890843A7
:101C30000443AC81AC8A4FF6FF400440B0890443B2
:101C4000AC8201A8FFF71EFE1F48874202D1DDF8D3
:101C500010A001E0DDF80CA0A88900F4004040B11C
:101C60000AEBCA0000EB0A1031684900B0FBF1F83A
:101C700007E00AEBCA0000EB0A1031688900B0FBEC
:101C8000F1F86420B8FBF0F004012009642101FBA5
:101C90001089A88900F4004040B1322000EBC9004F
:101CA000B0FBF1F000F00700044308E0322000EB45
:101CB00009106421B0FBF1F000F00F0004432C8107
:101CC00006B0BDE8F08700000038014000BFFEE725
:101CD000490050EAC12018BF04204A0D18BF40F047
:101CE000010040F2FF72B2EB515F08BF40F002000A
:101CF000012808BF052070472DE9F0414F1E00EB79
:101D0000C7010446D1E9000115461E4637F0060218
:101D10000DD02A46334600F0CBFD7F1E04EBC703EF
:101D2000D3E9002300F074FB37F00602F1D1022F53
:101D300025D0042F13D0062F18BFBDE8F0812A4606
:101D4000334600F0B5FDD4E90A2300F061FB2A46D2
:101D5000334600F0ADFDD4E9082300F059FB2A46D4
:101D6000334600F0A5FDD4E9062300F051FB2A46D6
:101D7000334600F09DFDD4E9042300F049FB2A46D8
:101D8000334600F095FDD4E9022300F041FB2A46DA
:101D9000334600F08DFDD4E90023BDE8F04100F0AA
:101DA00037BB012201F055BA00F032BB024A0020D5
:101DB000110701F04EBA000001FDFFFF30380A287C
:101DC00001D2012070470020704700002DE9F84F34
:101DD00004460D4621F0004000917349814211DC18
:101DE0007249884201DC06D12CB120462946BDE863
:101DF000F84FFFF7D6BF6E48002DCCBF6D496E4936
:101E0000BDE8F88F6D49814211DD6D498142D8BF2F
:101E10004FF0FF366DDD20462946FFF759FF0428B5
:101E200008BFFFF7C3FF20462946BDE8F88F654984
:101E3000654F25F00045814233DD6449814219DD5B
:101E4000002632464FF080432046294600F0E0FA53
:101E500080468A4601222046294601F0FAF90022EE
:101E60003B4600F02FFE4246534600F08DFB0446F1
:101E70000D463EE001260022BA463B462046294652
:101E800000F0C6FA80460F460022534620462946F7
:101E900000F018FE42463B4600F076FB04460D4635
:101EA00027E04B4981421BDDDFF828A102260022F2
:101EB00053462046294600F0FBFC00223B4600F03A
:101EC000A7FA80460F46002253462046294600F0D6
:101ED000F9FD42463B4600F057FB04460D4608E03C
:101EE000032622462B4600203B4900F04DFB0446CA
:101EF0000D4622462B461046194600F0D9FC8B466B
:101F0000824602460B4600F0D3FC074602463348A1
:101F100088460B4606217844FFF7EEFE52465B46A4
:101F200000F0C6FC82462E488B463A4643460521C1
:101F30007844FFF7E1FE3A46434600F0B9FC02461A
:101F40000B46002E504659460CDA00F061FA224644
:101F50002B4600F0ADFC01B022462B46BDE8F04F09
:101F600000F0A4BD00F054FA22462B4600F0A0FC7D
:101F70001C4A7A4402EBC603D3E9002300F0A2FD19
:101F800022462B4600F09EFD174A7A4402EBC60318
:101F9000D3E9002300F08AFD009A002AB8BF81F03F
:101FA0000041BDE8F88F0000000010440000F07F01
:101FB000182D4454FB21F93FFB21F9BF0000DC3F01
:101FC0000000203E0000F33F0000F03F0000E63F2D
:101FD000008003400000F83F0000F0BF2E14000016
:101FE000EC1300008A130000521300002DE9F04D9D
:101FF0009446CCF1000423F000464CEA0404594F07
:1020000046EAD4749A46884621F00042BC4206D87B
:10201000454240EA050442EAD474BC4204D9BDE812
:10202000F04D6246FFF7C0BEAAF14055A5F17F65AD
:1020300055EA0C040BD0022404EAAA744A4DDFF8D6
:102040002CE144EAD87452EA000B04D00CE0BDE85D
:10205000F04DFFF7BBBE002C14BF012CBDE8F08D86
:10206000022C30D0032C32D056EA0C0B0AD0BE42E0
:1020700020D1BA4209D126F0804622F08042334670
:10208000114617E000291ADB25E0DFF8E4B0FB4435
:10209000002C04BFDBE90001BDE8F08D012C02BF7C
:1020A000DBE9000181F00041BDE8F08D022C0AD08F
:1020B000032C0CD0BA4212D1B8F1000F0BDA2A4827
:1020C0002C49BDE8F08D28462B49BDE8F08D284607
:1020D0007146BDE8F08D24482849BDE8F08D921B7B
:1020E00012153C2AC4BF204F244E10DCBAF1000F59
:1020F000BEBF12F13C0F00273E4608DB624600F0EF
:1021000043FA21F00041FFF761FE07460E4694B105
:10211000012C08BF86F000460DD0194A194B022C3D
:102120003846314615D000F0CDFC2A46BDE8F04DCA
:10213000114B00F0C7BC002213463846314600F070
:102140007BFB04BF0220FEF7EEF838463146BDE8BF
:10215000F08D00F0B7FC2A46BDE8F04D064B00F0CC
:10216000A5BC00000000F07F182D4454FB2109C0DD
:10217000E6120000FB21F9BFFB210940FB21F93FDA
:10218000075C143326A6A13C9EB033480F904FF451
:10219000A060FFF74BFBFFF74DF930A0FFF70AFDFA
:1021A000FFF7ECFA32A0FFF705FDFFF77DFC35A045
:1021B000FFF700FD4EE001218807FFF79FFC012893
:1021C00048D101218007FFF78AFCFFF771F93149F7
:1021D00008600846006800680E900846006840687D
:1021E0000D900846006880680C900968C8680F99CF
:1021F00000F086FF0B9027480068006A0A900A9852
:1022000000F04AFD04460D460B9800F045FD0646D9
:102210000F460C9800F040FD804689460D9800F06E
:102220003BFD82468B460E9800F036FDCDE900ABB3
:10223000CDE90289CDE90467CDE90645CDE908017C
:1022400015A110A8DDE90823FDF7CAFF10A8FFF7C4
:10225000B1FC00BFAFE70000AC1C9AC0554152541E
:102260003120496E697420446F6E650A00000000D9
:102270004D50553630353020496E697420446F6EAC
:10228000650A000054494D3220496E697420446F3C
:102290006E650A0000000020252E33662C252E33A3
:1022A000662C252E33662C252E33662C252E336680
:1022B0000A00000070B500250120FFF78FF8002408
:1022C0000EE00120FFF778F8FFF764F8012802D14B
:1022D0008020204105430020FFF76EF8601CC4B247
:1022E000082CEEDB284670BD10B50120FFF776F80C
:1022F0000120FFF761F8FFF74DF804460020FFF7D3
:102300005BF8204610BD70B5054600240DE0802125
:10231000214101EA0500FFF761F80120FFF74CF8C1
:102320000020FFF749F8601CC4B2082CEFDB70BD39
:1023300010B504462046FFF751F80120FFF73CF89E
:102340000020FFF739F810BD10B50120FFF746F85F
:102350000120FFF731F80020FFF740F80020FFF7D9
:102360002BF810BD10B50020FFF726F80020FFF76E
:1023700035F80120FFF720F80120FFF72FF810BDF6
:1023800010B500290AD00878002807D005487844FD
:10239000FEF72EFB002801D0002010BD0248784433
:1023A00010BD0000A61000009E10000021F00042A9
:1023B000A2F16052B2F5801F01F0004328BFD2F1B4
:1023C0007F6C0BD95FEA001C43EAC20242EB5070FB
:1023D00018BF704728BF20F001007047B2F5801F7A
:1023E000BCBF184670474FEA410C1CF5001F02D2D3
:1023F000084600F080BE70B500F004FB00000089C4
:10240000FFF7F6BF4FF00040A0F5800070470000D6
:1024100010B591EA030F48BF83F0004300F15A83DF
:10242000841A71EB030C05D2121943EB0C03001B49
:1024300061EB0C01DFF824E14FEA1154A4EB135CCB
:102440001EEA430F18BF9EEA445F73D023EA0E03CF
:10245000DCF1200E21EA045143F4801332D322FA36
:102460000CFE10EB0E0023FA0CFE41EB0E01CCF13A
:10247000200E03FA0EFE10EB0E0051F10001B1F533
:10248000801FCCF1200E32D201EB045112FA0EF271
:10249000BDE8104058BF7047401C38BF5FEA420299
:1024A00018BF7047002814BF20F0010041F100015F
:1024B0004FEA410313F5001F38BF7047A1F1C04137
:1024C00000F0EEBA012A43EB0302ACF1200CDCF180
:1024D0001F0E32BF4FF0000E23FA0CF310EB030077
:1024E00041EB0451B4EB115FD0D0A1EB045101F5E5
:1024F000801149085FEA300001EB04510ED350F11E
:10250000000038BF12FA0EFE08D1BDE81040C9E73E
:10251000401C38BF5FEA4202CAD1C3E7BDE81040A1
:102520004FEA410313F5001F38BF7047A1F1C041C6
:1025300000F0B6BA9EEA445F08D011EA5E0FBDE82B
:10254000104004BF01F0004100207047BDE810407A
:1025500070B500F057FA00BF64FBBE3E0000E0FF1C
:1025600002494FF0000000F042BE00BF0000F87FBB
:10257000491058BFC1F140415B1058BFC3F14043FF
:102580008B42EFF3008070472DE9C04130B4DFF893
:10259000A0C23CEA111418BF3CEA131400F0EC800E
:1025A00081EA03051CEA111444EAD57418BF1CEA39
:1025B000131500F0C780A4EB05044FF0004545EA71
:1025C000C12145EAC32341EA505143EA525304F181
:1025D0007F74994204F500344FEAC0204FEAC222CA
:1025E00008BF904200F09C804FEA13650FF240163E
:1025F000765D4FEA134506FB05F7C7F1807706FBCA
:1026000007F74FEAD737A7FB03687642C8F580384B
:10261000A7FB06CE38BFA8F1010807FB08E64FF07C
:10262000000EA6FB028CE6FB03CEDCF1000CCEF123
:10263000004E38BFAEF1010EA6FB0C584FF000075C
:102640004FF00005E6FB0E87A1FB08C6A0FB07CEF6
:1026500016EB0E0645F10005E1FB076515F1E04EAE
:102660007EBFA4F580345FEA46066D4116F180070F
:1026700045F100054FEA17274FEA066647EA056766
:10268000A6F1DE46B6F1805F4FEA15251FD9384620
:1026900024F0010C05EBC471BCF1FE6F01EB0C11D1
:1026A00002D8F0BCBDE8008124425CBF01F5801E69
:1026B0009EEAC47F02D4F0BCBDE80081244238D435
:1026C000F0BCA1F1C041BDE8004100F0E9B94FEA1A
:1026D000D22242EA43524FEAD323A7FB02864FEAB3
:1026E000D02040EA415007FB03661EEA0E0F4FEA76
:1026F000D12105FB026658BFA6EB0056B6EB00568B
:102700004FEA520E4EEAC37E18EB0E0E56EB530EF6
:10271000BDD518EB02085E417F1C55F10005B6E7F8
:102720004FF480154FF000074FF000064FF00008FF
:10273000ADE7F0BC4FF0000001F1C04101F00041F5
:10274000BDE8008111EA0C1F0CEA131500D00CE063
:1027500013EA0C1F00F025804FF00000F0BC81EA66
:10276000030101F00041BDE80081F0BCBDE800417B
:1027700081EA030100F094B9F0BCBDE8004170B5F6
:1027800000F040F9097EFC3E00F007B881EA030141
:102790004FF0000001F00041704781EA030100F0B2
:1027A0007FB9F0BCBDE800414FF0000021497047FF
:1027B000FFFDFBF9F7F5F4F2F0EEEDEBE9E8E6E406
:1027C000E3E1E0DEDDDBDAD8D7D5D4D3D1D0CFCD8D
:1027D000CCCBCAC8C7C6C5C4C2C1C0BFBEBDBCBBC6
:1027E000BAB9B8B7B6B5B4B3B2B1B0AFAEADACABC1
:1027F000AAA9A8A8A7A6A5A4A3A3A2A1A09F9F9E9B
:102800009D9C9C9B9A99999897979695959493934C
:10281000929191908F8F8E8E8D8C8C8B8B8A8989E3
:102820008888878786858584848383828281818066
:102830000000FF070000F87F51EA030C17D41CF5D5
:10284000801F58BFBCF5801F00F10680994218BF59
:10285000704708BF9042704707D711F5801F58BFD7
:1028600013F5801F19D499427047894270471CF5AF
:10287000801F08D5BCF5801FF7D58B4218BF704765
:1028800008BF824270474FF4001C1CEB410F38BF59
:102890001CEB430F01D28B42704770B500F0B2F8C9
:1028A000922449004FF000514FF08053FFF760BE73
:1028B000DFF848C170B51CEA111E1EBF1CEA1315D3
:1028C0009EEA0C0F95EA0C0F00F06F8081EA03047A
:1028D00023EA4C134EEAD47E21EA4C1141F48011D4
:1028E00043F48013AE44A1FB024CA0FB0365AEF1A0
:1028F0007F7E361955EB0C05A1FB034C4CF1000310
:10290000A0FB021C16EB0C06654153F100030942C3
:1029100018BF46F0010613F4007F0BD14FEA0331D4
:102920004FEA0530340341EA155140EA16506FF082
:1029300003020AE04FEAC3214FEAC520F40241EA4C
:10294000555140EA56506FF0020202EB2E4201EB65
:10295000025585EACE710AD05FEA440C18BF24F014
:10296000004450F1000041F1000120EAD47040F22F
:10297000FE7C624500D270BDA84214BF4FF0804477
:102980004FF04044002E08BF0024BEF1806FA8BF66
:10299000A1F1C041BDE8704080F282804FF000009C
:1029A00001F1C04101F0004170479EEA0C0F0CEAB2
:1029B000131518BF95EA0C0F06D04FF0000081EAFE
:1029C000030E0EF0004170BD00F01CF88900013EBE
:1029D00000F007B800F009B84FEA430C5FEA5C5C0E
:1029E00008D081EA030100F05BB84FEA410C5FEACE
:1029F0005C5CF6D14FF00000014970470000FF0712
:102A00000000F87F0EF1020E2EF0030E5EF8046B4C
:102A1000364205D4012A43EB030515F5001F12D8F1
:102A2000012841EB010C1CF5001F0CD80ED14FEA18
:102A3000D17C15F5001F0CEB4C0C0CF1020C08BFFF
:102A40004CEBD37C04E04FF0080C01E04FEAD37C60
:102A50000CEB4C0526FA05F606F00706B6F1040C59
:102A600006D20EEB860CBDE870404CF0010C6047BE
:102A7000DFE80CF0090B02024FF000414FF00000BC
:102A8000A1F5002170BD19461046012851EB010443
:102A900018BFD4F5001484BF002001F0004170BDC0
:102AA0000808A0F500114FEA3101704791EA030FC1
:102AB00010B581F000413FF5B3AC83F0004300F066
:102AC00009B8000010B591EA030F48BF83F0004336
:102AD0003FF5A6AC841A71EB030C07D212198CF0E7
:102AE000004C43EB0C03001B61EB0C01DFF8A4E18D
:102AF0004FEA1154A4EB135C1EEA430F18BF9EEA81
:102B0000445F00F0B08023EA6E03524221EA045190
:102B1000C3EB6E0338BF5B1EDCF1200E25D322FA17
:102B20000CFE10EB0E0043FA0CFE41EB0E01CCF153
:102B3000200E03FA0EFE10EB0E0051F10001CCF155
:102B4000200E29D412FA0EF201EB0451BDE8104018
:102B500058BF7047401C1CBFB2F1004F704700289F
:102B60000CBF491C20F00100704712EB020E43EB32
:102B7000030218BF4FF0010E4EEA4202ACF1200CE6
:102B8000DCF11E0E54D943FA0CFE10EB0E0051F18D
:102B9000FF31CCF11E0ED5D50EF1010E12FA0EFE4C
:102BA000404141EB010101EB445C5FEA5C5C10D900
:102BB00010EBDE7001EB045138BFBEF1004FBDE8F1
:102BC000104018BF704700280CBF491C20F00100BE
:102BD000704730D24FEAD42C11F5001124F4006470
:102BE0001BD0B1FA81F20B3AA41AA41ED2F1200331
:102BF000914030FA03F31943904001EBCC71002C63
:102C000001EB0451BDE81040A8BF704701F1C0417D
:102C10004FF0000001F000417047B0FA80F310FA65
:102C200003F100D110BDE41A173C4805C90AE4E7D6
:102C300001EB045110BD491001EB0451BDE81040F7
:102C40004FEA300002E04FF0000170474A0008BF31
:102C50000042F8D0B2F5001F28BF704701F00041D4
:102C60004FF0000070479EEA445F07D011EA5E0F04
:102C7000BDE8104004BF002100207047BDE81040AF
:102C800070B5FFF7BFFE00BF40DFF63E83F00041A6
:102C9000104670470000E0FF43004FEAD30C4FEAB4
:102CA0003C0C43401FBF40070CF1605113F0FE4F36
:102CB00070471CF0006F03D100200CF000417047FA
:102CC0000CF0004343EA507010B540EACC0000F02D
:102CD000CCF900BF000000924FEA0001FFF7E0BE10
:102CE0004FF000414FF00000A1F5002170470000B7
:102CF00090EA010F48BF81F0004100F10882421ABA
:102D00003CBF801A89184FEAD0524FF07F4C1CEA22
:102D1000410FA2EBD15318BF9CEA026F00F03B8039
:102D20004FF0004C4CEA00204CEA012121FA03FC50
:102D300010EB0C0C1ED202F1FF325FEA1C2040EBBC
:102D4000C25038BF70471CF07F0F4FEA400C18BFCD
:102D5000BCF17F4F38BF7047C3F12003994008BFD3
:102D600020F00100BCF17F4F38BF7047A0F1C04098
:102D700000F0C1B94FEA3C00000A40EBC25028BF46
:102D80001CF0FF0F4FEA400CE6D018BFBCF17F4F9C
:102D900038BF7047EAE79CEA026F05D010EA5C0F83
:102DA00008BF00F00040704710B500F05EF900BFAA
:102DB00064FBBE3E4FF47F0C1CEAD0121EBF1CEA1F
:102DC000D11392EA0C0F93EA0C0F00F0858090EA81
:102DD000010F48BF42F4807240F4000C41F400003F
:102DE0002CF07F4120F07F4000B58142A2EB03022E
:102DF0000FF2081CACEB504EC0F100009EF800E052
:102E00004FEA4E0E00FB0EFC38BF49004FEA2C1C67
:102E100002F5FA020CFB0EF34FEACE1E4FEA112C1C
:102E20004FEAC1210EEB635E42EB22420EFB0CFC2B
:102E30004FEA1C5300FB03114FEA112C4FEA0131FA
:102E40000EFB0CFC4FEADC4C00FB0C11C14228BF0E
:102E500009184CEB03335DF804EB10EB410143EB35
:102E6000C250B2F57C0F38BF704729D512F0F00F71
:102E70001CBF00F1C04000F0004070470081828319
:102E80008485868788898B8C8D8E8F919293959679
:102E900097999A9C9D9FA0A2A3A5A7A8AAACAEB003
:102EA000B2B3B5B7B9BCBEC0C2C5C7C9CCCED1D408
:102EB000D7D9DCDFE2E6E9ECF0F3F7FAFE00000038
:102EC0004FEA400C0CF1807CBCF17E4F28BF70476C
:102ED000B0F1C04000F00FB990EA010F0CEAD11335
:102EE00048BF42F48072624538BF634507D213F48D
:102EF0007F0F16D080EA010000F00040704710B547
:102F000000F0B3F8097EFC3E00F005B880EA01004D
:102F100000F00040704780EA010000F0004000F03F
:102F2000EAB812F47F0F04BF0248704780EA01003C
:102F300000F0E1B80000C07F10F0004148BF4042FF
:102F4000B0FA80F310FA03F2C3F19D030BD051EAFB
:102F5000C35101EB1220530638BF704700F1010046
:102F600008BF20F0010070474FF47F0C1CEAD0121C
:102F70001EBF1CEAD11392EA0C0F93EA0C0F00F06B
:102F8000478090EA010F48BF42F480724FF0004C36
:102F90004CEA00204CEA012102EB0302A0FB0113E2
:102FA000A2F50002002918BF43F001035B0028BF0F
:102FB0004FEA330342EB22425FEA132C4CEBC25040
:102FC0002EBFBCEB436FB2F57C0F70474FEA036C2A
:102FD000BCF1004F08BF20F00100B2F57C0F38BFF4
:102FE00070470BD582F0FF0212F5803FC8BF7047D3
:102FF00000F1C040D8BF00F00040704700F5000C61
:103000005FEA4C0C48BF7047B0F1C04000F073B8A5
:1030100090EA010F0CEAD11348BF42F48072624576
:1030200038BF634504D280EA010000F000407047D9
:1030300010B500F01AF800BF8900013E00F007B893
:1030400000F009B85FEA410C5FEA1C6C08D080EA26
:10305000010000F050B85FEA400C5FEA1C6CF6D14A
:103060004FF00040A0F5800070470EF1020E2EF0E8
:10307000030E5EF8044B244204D44FEA4102B2F13D
:103080007F4F11D84FEA4003B3F17F4F0CD80ED1D8
:103090004FEAD07CB2F17F4F0CEB4C0C0CF1020CE0
:1030A00008BF4CEBD17C04E04FF0080C01E04FEA84
:1030B000D17C0CEB4C0324FA03F404F00704B4F1C4
:1030C000040C06D20EEB840CBDE810404CF0010C51
:1030D0006047DFE80CF0070802024FF00040A0F55F
:1030E000800010BD0846420018BFD2F1807288BF30
:1030F00000F0004010BDFF2141EAD050C0057047EC
:1031000090EA010F48BF81F000413FF5F8AD421A47
:1031100004D882F00042A0EB020011444FEAD052E2
:103120004FF07F4C1CEA410FA2EBD15318BF9CEA31
:10313000026F4AD04FF0004C4CEA00204CEA0121CB
:1031400021FA03FCB0EB0C0C0FD412F0FE0F36D0BA
:103150005FEA4C001DD5001240EBC25038BF7047EB
:103160001CF03F0F18BF70470BE0A2F101025FEAAD
:103170001C2040EBC25038BF70471CF07F0F18BFB7
:103180007047C3F12003994014BF401E20F0010096
:10319000704780084FEA122308BF7047B0FA80FCDE
:1031A000A2EB0C02CCF1280C60FA0CF093EA122F7F
:1031B00004BF00EBC25070474FEAC3707047130A58
:1031C0005FEADC1008BF7047F6E79CEA026F04D0A4
:1031D00010EA5C0F08BF0020704710B5FFF745FFED
:1031E00040DFF63E81F000407047FDF77BB90CF000
:1031F0000F03092B08BF082000F059800A2B0BD0C1
:10320000082B18BF704708BF1CF0400F0AD04FF0C2
:1032100000004FF0000170471CF0400F18BF4FF046
:10322000004070471CF0100F08D020F0704300F0F1
:103230007F4242EAD3014FEA4370704700F060409A
:1032400021F07F4242EA000201F07F4040EA7270C2
:1032500070474FF0FF0C4CF4E06C1CEA11531CBF9C
:103260009CEA030C9445C2BFDA4201EB025170475D
:10327000002B0DD0BCF1000F0FD0002A01F000414F
:10328000A4BF41F0E04141F07F614FF00000704782
:1032900001F000414FF00000704750EA01334FF059
:1032A0009B0C18BF4CF0806C7FF45AA970471CF43B
:1032B000801F11D01CF4E02F03D06FEACC314900FD
:1032C00070474FF04050EFF3008222F0704242EA24
:1032D000000282F3008870474FF000007047000042
:1032E0004FBB610567ACDD3F182D4454FB21E93F1E
:1032F0009BF681D20B73EF3F182D4454FB21F93F0D
:10330000E2652F227F2B7A3C075C143326A6813C92
:10331000BDCBF07A8807703C075C143326A6913C3D
:10332000C4EB98999999C9BF711623FEC671BCBFA9
:103330006D9A74AFF2B0B3BF9AFDDE522DDEADBF11
:103340002F6C6A2C44B4A2BF0D5555555555D53F29
:10335000FF8300922449C23F6E204CC5CD45B73F44
:10336000513DD0A0660DB13FEB0D76244B7BA93FBC
:1033700011DA22E33AAD903F0000000000000000A7
:1033800002400000000000A0000000000540000016
:10339000000000C8000000000C4000000000409C3D
:1033A00000000000194000000020BCBE000000002A
:1033B00034400000BFC91B8E00000004B54000006F
:1033C000504BCFD06607E2CF010000006C410000F7
:1033D0003E8251AADFEEA73401000000D94200006E
:1033E000DCB5A0E23A301F97FFFFFFFFB4450000B5
:1033F000FD25A0C8E9A3C14FFFFFFFFFFF3F00006D
:103400000000008000000000FF3F0000000000807E
:103410000000000050340008000000201C000000E4
:10342000280100086C3400081C0000208C060000F5
:10343000440100081C00000043000000F8FFFFFFEB
:103440000C0000000E0000000F0000002E00000025
:10345000000000000100000000010203040102035B
:0C3460000406070809020406080000002A
:04000005080000ED02
:00000001FF
