:020000040800F2
:10000000C0070020E5010008F51C000833170008B0
:10001000F11C00083D140008AD230008000000009A
:100020000000000000000000000000002D2100087A
:100030004114000800000000C9200008192200082F
:10004000FF010008FF010008FF010008FF01000890
:10005000FF010008FF010008FF010008FF01000880
:10006000FF010008FF010008FF010008FF01000870
:10007000FF010008FF010008FF010008FF01000860
:10008000FF010008FF010008FF010008FF01000850
:10009000FF010008FF010008FF010008FF01000840
:1000A000FF010008FF010008FF010008FF01000830
:1000B000FF0100087D220008FF010008FF01000881
:1000C000FF010008FF010008FF010008FF01000810
:1000D000FF010008FF010008FF010008FF01000800
:1000E000FF010008FF010008FF01000800F002F80E
:1000F00000F04FF80AA090E8000C82448344AAF173
:100100000107DA4501D100F044F8AFF2090EBAE870
:100110000F0013F0010F18BFFB1A43F0010318473B
:100120008C550000AC550000103A24BF78C878C147
:10013000FAD8520724BF30C830C144BF04680C60ED
:10014000704700000023002400250026103A28BF35
:1001500078C1FBD8520728BF30C148BF0B60704739
:10016000662903F05887642900F07080782900F030
:10017000A980002070471FB500F081F900F01CFC39
:1001800004000020002102F06FFFE0601FBD10B5E9
:1001900010BD00F015FD1146FFF7EDFF02F0D4FC95
:1001A00000F033FD03B4FFF7F2FF03BC00F078FD6D
:1001B0000B49D1F800C04A685CF8043B1068184449
:1001C00042F8040B8C4528BFA1F1DC0C8A4228BF01
:1001D000A1F1DC02C1F800C04A6020F00040704785
:1001E000580100200948804709480047FEE7FEE71C
:1001F000FEE7FEE7FEE7FEE7FEE7FEE7FEE7FEE7D7
:1002000004480549054A064B704700001D220008B6
:10021000ED000008C0010020C0070020C00300203E
:10022000C00300200FB41CB5074B06AA7B446946E7
:100230000090059800F0A7FB0020694600F0B6FB8F
:100240001CBC5DF814FB00007D0700002DE9F041A7
:100250000646002410687529314616A510D0AFF364
:100260000080002802DA404213A507E031688A07BF
:1002700001D512A502E0490704D511A5012401E02A
:10028000AFF3008000210A2206F1240709E0B0FB49
:10029000F2FCB0FBF2F302FB1C003030785418463D
:1002A000491C0028F3D123462A463046BDE8F041D8
:1002B00000F0FCB8000000002D0000002B00000042
:1002C0002000000070B504460D4621461068AFF3CB
:1002D00000802188090502D50F4A7A4402E00E4ABF
:1002E0007A440E32002104F1240305E000F00F06E9
:1002F0000009965D5E54491C0028F7D12078002340
:10030000000704D5702D02D009B102231132204616
:10031000BDE8704000F0CAB85C5200002DE9F05F03
:10032000894604464FF0000ADFF824B1FB44C0F8C8
:1003300020A02046E168884700287DD0252806D0E7
:10034000D4E901219047206A401C2062F1E7002592
:100350005F462046E16888472028064607DB312EA5
:1003600005D2B81910F8200C08B10543F1E7A80729
:1003700001D525F00405C4F81CA00027C4F818A076
:100380002A2E09D0304602F089F838B304EB8708EA
:10039000303EC8F8186019E059F8041B204604EBF9
:1003A00087029161E1688847012F064618D1E0690C
:1003B000002820DA25F020051DE0D8F8180000EB11
:1003C000800006EB40003038C8F818002046E1688D
:1003D0008847064602F062F80028EED1012F0AD0C5
:1003E0002E2E08D12046E16888477F1C0646022F42
:1003F00045F02005C4DBA069002803DA404245F03F
:100400000105A061E80701D025F01005A6B1A6F10D
:100410004100192802D8203645F400654A46314685
:10042000204625604D46FFF79BFE60B1012807D0AE
:10043000ED1D25F0070000E007E000F1080978E76E
:1004400005F1040975E730467AE7206ABDE8F09FB8
:10045000325200000B4910B5A1F17C020A4CC2E9EE
:100460003712372106E000EB104342F82130074BEA
:1004700000FB03400B1EA1F10101F4DC10BD0120C3
:10048000E8E70000F8000020E119D666CD0D010074
:1004900070477047704710B500F092FA006810BDC1
:1004A00010B5044600F08CFA046010BD2DE9F04749
:1004B0000D4699469246044600F1240801688806D4
:1004C00004D5E06921F01001216000E00120A8427C
:1004D00001DD471B00E00027A1697A1902EB090042
:1004E000081AA0612078C00602D42046AFF300802D
:1004F000002608E0D4E901211AF806009047206A96
:10050000401C761C20624E45F4DB2078C0060AD5DC
:100510002046AFF3008006E0D4E901213020904767
:10052000206A401C2062381EA7F10107F4DC07E0B6
:10053000D4E9012118F805009047206A401C206288
:10054000281EA5F10105F3DC2046AFF300802078DA
:10055000000602D50220BDE8F0870120FBE77047C6
:100560002DE9FF4F0C461E464FF0FF378BB0D2E906
:100570000001DDF860800A908A46C1F30A5505B98A
:100580003D46002108464FF00000BAF1000F00F48C
:10059000400005DA00EB80004FF4400101EA500012
:1005A0004FEA9059B9F1010F00DDB9460A9850EAB7
:1005B0004A000ED044F61050A5F2FF3545432F14E3
:1005C000B8F1000F1ED07542291E1EDDC9F10002D0
:1005D0001CE0B8F1010F4FF0000001D0302103E022
:1005E000F24305E02154401CB042FBDB30460022C0
:1005F000002121540B99C1F80880C1E900200FB0F7
:10060000BDE8F08FBD1B6D1CDEE74A4600DA69428B
:1006100006A800F05FFA06AB93E8070003AB83E897
:10062000070050460A9900F041FB8DE80700A0F54D
:1006300000501F3800900398002D0ADD42F21F0180
:100640004A460844002303A90390684600F0AAFD27
:1006500009E0A0F500504A461F38002303A9039083
:10066000684600F0B4FD8DE807000004000C03D0DC
:100670004FF0FF30410800E01046B8F1000F03D002
:100680000022009215461EE0751E05D400F09CF96C
:10069000303262556D1EF9D5B3460122084302D0AF
:1006A00000227F1C04E02078302801D100227F1E28
:1006B000002A099784D01DE0112D07DA00F084F993
:1006C000303262556D1C50EA0102F5D1084302D068
:1006D0000098C8B10EE00021681E05E0235C625C52
:1006E00063542254401E491C8142F7DBAB46A81BD1
:1006F000401E0990002004F80B000B98099AC0F8DE
:100700000880C0E9002B7AE711264FF0000857E770
:100710002DE9F04F88460446D21D22F0070191B022
:10072000D1E90001CDE90A0101F042FE02460B9831
:10073000C00F01D02D2007E02068810701D52B20B4
:1007400002E0202101EAC000032A099001D0072A13
:1007500005DB03464146204600F07CF90BE120789A
:10076000800601D5E06900E00620B8F1650F8146FA
:1007700006D0B8F1660F18D0B8F1670F70D131E02C
:100780000020B9F1110F009001DB112301E009F104
:1007900001030AAA01A90CA8FFF7E2FEDDE90C702B
:1007A000002609F10105834647E001204B460090F1
:1007B0004FF000470AAA01A90CA8FFF7D1FEDDE916
:1007C0000DB00C995D46002610B909F101000D1815
:1007D000B9EB050003D4C0F1FF3609F10105A5EB23
:1007E00009002BE0B9F1010F01DA4FF001090020F7
:1007F000B9F1110F0090484601DD112300E00346D6
:100800000AAA01A90CA8FFF7ABFEDDE90C704D4662
:1008100000268346207800070AD4AB4500DA5D46FF
:1008200001A8012D04DD411911F8011C302907D060
:100830004F4502DA17F1040F04DA012082460FE077
:100840006D1EEEE7002F02DCED1B3E4403E0781C3A
:10085000A84200DD7D1CB81B00F1010A4FF00047E3
:100860002078000703D4AA4501DB4FF0FF3A0021AE
:10087000B7F1004F0DF143088DF8431024D002204A
:100880002B23002F01DA7F422D230A21021EA0F123
:10089000010000DC5FB197FBF1FC97FBF1F201FB7B
:1008A0001C7C17460CF1300C08F801CDEEE7A8F1DE
:1008B000010003702188090501D5452100E065216B
:1008C000A0F1010800F8011C09980FA9A1EB080785
:1008D000FF1D00B10120411901EBEA70A169384404
:1008E000081A401EA0612078C00602D42046AFF34B
:1008F0000080099828B1D4E901219047206A401C62
:1009000020622078C00622D52046AFF300801EE08A
:10091000002E04DBB34502DD01A8805D00E030203D
:10092000D4E901219047206A401C2062761CAAF17C
:1009300001005FEA000A0AD100F03EF8C0680168D1
:10094000405CD4E901219047206A401C2062281EA7
:10095000A5F10105DCDC07E0D4E9012118F8010B61
:100960009047206A401C2062381EA7F10107F3DC83
:100970002046AFF30080032011B041E601694A1C14
:1009800002610878704700B58FB0CDE901310021D0
:10099000059105497944CDE9031011466846FFF7F2
:1009A000BDFC0FB000BD0000E5FFFFFF0A6802F8C4
:1009B000010B0A607047000000487047800100206A
:1009C000004870476001002030B5B0F10A024FEADC
:1009D000900E71F100034EEA817EB0EB0E0061EBE8
:1009E00091014FEA101E4EEA017E10EB0E0041EB22
:1009F00011114FEA102E4EEA016E10EB0E0041EB82
:100A000011214FEA104E4EEA014E10EB0E0041EB61
:100A10001141401841F100014FEAD00040EA417015
:100A20004FEAD10110EB80054FEA810444EA90744B
:100A300044EB01046D1944EB0404521BA3414FF035
:100A4000000348BF0A3200D530BD401C41F100010F
:100A500030BD00002DE9F0411F4604460326016821
:100A6000072A01F4006004DB08B116A505E016A50D
:100A700003E008B115A500E015A521F010002060E5
:100A8000A069C01EA0610FB1401EA0612046AFF357
:100A900000804FB1D4E9012138469047206A401CBC
:100AA0002062C01C206206E0206AFAE7D4E9012136
:100AB00015F8010B9047761EF8D22046AFF3008060
:100AC000BDE8F0814E414E006E616E00494E460019
:100AD000696E66002DE9F047814616468AB03548B2
:100AE00078440DC88DE80D0032487844801C03AC72
:100AF0000DC884E80D0041F69B300844372190FB77
:100B0000F1F290FBF1F5A5F1800501FB12041B3C0D
:100B100002D56442012000E00020DFF898A0804662
:100B20000027FA44AAF1BE0A0EE0E0070AD03246D6
:100B3000684607EB470101230AEB810100F047FB00
:100B40008DE8070064107F1C002CEED1194F7F4404
:100B5000AE3F19E0E80715D007EB04100DF1180AB5
:100B600090E80E008AE80E00C068F04201D19819A2
:100B700008903246012306A903A800F028FB03AB26
:100B800083E807006D10641C002DE3D14FF00103D2
:100B900032466946B8F1000F03A802D000F002FB0C
:100BA00001E000F014FBC9E90001C9F808200AB00F
:100BB000BDE8F087B04B000000487047600100209E
:100BC0007546FFF7F9FFAE4605006946534620F02B
:100BD0000700854618B020B5FFF712FBBDE820409E
:100BE0004FF000064FF000074FF000084FF0000BE9
:100BF00021F00701AC46ACE8C009ACE8C009ACE89C
:100C0000C009ACE8C0098D46704710B50446AFF383
:100C100000802046BDE81040FFF7C4BA4FF0013C09
:100C200050F8042B51F8043B9A4221D1A2EB0C035B
:100C3000934313EACC1317D150F8042B51F8043B1B
:100C40009A4215D1A2EB0C03934313EACC130BD1B8
:100C500050F8042B51F8043B9A4209D1A2EB0C0343
:100C6000934313EACC13DBD04FF00000704700BF72
:100C7000D01A01BAB1FA81F101F0180122FA01F09B
:100C8000CB40C1F12001DBB2C0B2C01A2CFA01F393
:100C9000D11A914311EAC311E6D1704770470000A1
:100CA00001491820ABBEFEE7260002005FEA400CB7
:100CB00008BF91F0000F4FEA8C234FEAC12243EAAC
:100CC00051514FEA1C5018BF00F5F0404FEA300078
:100CD00018BF41F000415FEA6C5C00F02980BCF174
:100CE000FF3F08BF40F080407047130C06BF12045E
:100CF0004FF0100C4FF0000C130E04BF12020CF159
:100D0000080C130F04BF12010CF1040C930F04BF65
:100D100092000CF1020CD30F04BF52000CF1010C35
:100D200011464FF00002A0F11F00A0EB0C0070472D
:100D300011F0004F08BF704731F000413FF4D5AFCC
:100D40000B0C06BF09044FF0100C4FF0000C0B0EFB
:100D500004BF09020CF1080C0B0F04BF09010CF1D0
:100D6000040C8B0F04BF89000CF1020CCB0F04BFE5
:100D700049000CF1010CCCF12003A0EB0C0022FA8D
:100D800003F302FA0CF241EA030100F1010070479B
:100D900020F07F4C80EA030023F07F47ACEB070391
:100DA00003F57C5300F0004003F1FF032DE9804977
:100DB0004FEA154B09B44FEA144325EA0B4E24EAD7
:100DC00003480FF2042606EB132749083E785FEA32
:100DD000320203FB0667C7F5000707FB06F64FEA7A
:100DE00054374FEAD64606F1020607FB066CCCF1F3
:100DF000005C4FEA1C472CEA074C07FB06F40CFB8F
:100E000006F504EB15464FEA961634BF00204FF066
:100E100000404FEAD13706FB07FC4FEA1C4C0CFBA5
:100E20000BF7D21B03FB0CF761EB07010CFB0EF772
:100E3000B0EB074072EB17420CFB08F734BFA2EB94
:100E40000742B2EB074261EB17414FEA0C444FEA0D
:100E5000910706FB07FC4FEA1C4C0CFB0BF7B0EBB1
:100E6000C74072EB573203FB0CF734BFA2EBC7420B
:100E7000B2EBC74261EB57310CFB0EF7B0EBC7008A
:100E800072EB57720CFB08F734BFA2EBC702B2EB50
:100E9000C70261EB5771039F4FEA816141EA9211EA
:100EA00004EBCC044FEAD1374FEA826206FB07FC21
:100EB00042EA90124FEA80604FEA1C4C0CFB0BF7A1
:100EC000D21B03FB0CF761EB07010CFB0EF7B0EB39
:100ED000074072EB17420CFB08F734BFA2EB074246
:100EE000B2EB074261EB17414FEA8C554FEA91078D
:100EF00004EB9C2406FB07FC4FEA1C4C0CFB0BF795
:100F0000B0EBC74072EB573203FB0CF734BFA2EBD8
:100F1000C742B2EBC74261EB57310CFB0EF7B0EBA7
:100F2000C70072EB57720CFB08F734BFA2EBC70285
:100F3000B2EBC70261EB577115EB4C254FEA8161AB
:100F400041EA92114FEA82624FEAD13742EA9012A7
:100F500006FB07FC44F100044FEA80604FEA1C4C9A
:100F60000CFB0BF7D21B03FB0CF761EB07010CFB2F
:100F70000EF7B0EB074072EB17420CFB08F734BFDB
:100F8000A2EB0742B2EB074261EB174115EB1C15D0
:100F90004FEA813141EA92414FEA823242EA90427D
:100FA0004FEA80304FEA0C7644F1000448EA0343EC
:100FB0004EEA0B484FF0000EB2EB080C71EB030742
:100FC00024BF624639464EEB0E0E4FF0000B001860
:100FD000524149414BEB0B0BB2EB080C71EB030791
:100FE0007BF1000B24BF624639464EEB0E0E4FF0EC
:100FF000000B0018524149414BEB0B0BB2EB080CB4
:1010000071EB03077BF1000B24BF624639464EEBC0
:101010000E0E51EA020718BF46F0010616EB0E76D7
:1010200055F1000254F1000103D5BDE88901BDE886
:101030000088BDE88901BDE80048B619524141EB7E
:101040000101A3F10103704780807F7E7D7C7B7A64
:101050007978777676757473727171706F6E6E6D64
:101060006C6C6B6A6A69686867666665646463630A
:1010700062616160605F5F5E5E5D5D5C5C5B5B5A90
:101080005A595958585757565655555554545353FD
:1010900052525251515050504F4F4F4E4E4D4D4D58
:1010A0004C4C4C4B4B4B4A4A4A49494948484847A3
:1010B00047474746464645454544444444434343E1
:1010C0004342424242414141002B9C4630D477008A
:1010D0002BD01CB54FEA370703B44FF010004FF088
:1010E0001001BAF1000F06D0BCF1000FDCBF40F0D8
:1010F000080040F008014FF000000FBCBDE81040B0
:101100000BF1010BBBF1010F08BF5FEA170722BF0C
:1011100012F1010211F101014FF0004143F100030E
:1011200000F0004043EA00007047F9D35708D0E7C9
:1011300046EA064613F1400F4FEA16461FDD13F14B
:10114000200FDFBF16430A46002120335B42BED08A
:10115000C3F1200746EA064602FA07F74FEA1646A9
:1011600046EA0706C3F1200722FA03F201FA07F75D
:1011700021FA03F14FF0000342EA0702A7E746EA2B
:10118000020646EA06464FEA164646EA0106BCBF94
:1011900046EA0646360C4FF000034FF000024FF0CF
:1011A000000194E72DE9804C9A46934670B491E88B
:1011B000380007C831EA400C48BF34EA430C03D575
:1011C000FFF7E6FDFFF780FFF0BCBDE8008C2DE9DE
:1011D000804C9A46934670B491E8380007C810F0E6
:1011E000804F08BF13F0804F03D100F005F8FFF7E0
:1011F0006BFFF0BCBDE8008C20F07F4780EA030065
:1012000023F07F4C07EB0C03A3F57C5300F0004068
:10121000A3F1FE0392F0000F00F0B38095F0000FF1
:1012200000F077802DE901494FEA11404FEA14465A
:1012300021EA004800FB06FC24EA064708FB06F604
:1012400007FB08F800FB07F718EB06484CEB164CB9
:101250004FEA124B18EB07484FEA15464CEB174084
:1012600022EA0B4E0BFB06FC25EA06470EFB06F6B0
:1012700007FB0EFE0BFB07F71EEB064E4CEB164C66
:101280004FF000061EEB074E4CEB174B18EB0B080C
:1012900040F1000018EB0E0B58EB000840F1000085
:1012A0008F1A4FF000013CBFC943661B14BFB5EB5A
:1012B000040C00213CBFC943F61B4FEA17444EEA19
:1012C0008E0E27EA04454FEA1C4704FB07622CEA0E
:1012D000074C05FB07F70CFB05F604FB0CFC16EBB3
:1012E000074642EB174216EB0C4642EB1C421BEB47
:1012F000060658EB0202414146EA9E0601D5BDE8CA
:101300000189B619524141EB0101A3F10103BDE886
:1013100001894FEA14454FEA114724EA054621EABC
:10132000074C05FB07F406FB07F70CFB06F105FB72
:101330000CFC11EB074144EB17444FEA124711EB49
:101340000C4144EB1C4422EA074C05FB07F206FB68
:1013500007F70CFB06F605FB0CFC16EB074642EB09
:10136000174216EB0C4642EB1C456A1854F100017B
:1013700048BF7047B619524141EB0101A3F1010387
:10138000704795F0000F37D04FEA11424FEA1447EB
:1013900021EA024624EA074C02FB07F106FB07F7A5
:1013A0000CFB06F402FB0CFC14EB074441EB174169
:1013B0004FEA154714EB0C4441EB1C4125EA074C5E
:1013C00002FB07F506FB07F70CFB06F602FB0CFC1D
:1013D00016EB074645EB174516EB0C4645EB1C4252
:1013E000121951F1000148BF7047B619524141EB43
:1013F0000101A3F1010370474FEA14454FEA114779
:1014000024EA054621EA074C05FB07F106FB07F72E
:101410000CFB06F24FF0000605FB0CFC12EB07423A
:1014200041EB174112EB0C4251EB1C4148BF704796
:10143000921841EB0101A3F10103704700BFFEE7E1
:10144000704700B5034603E04FF47A7000F011F8DE
:10145000181EA3F10103F7D100BD10B5044603E047
:101460004FF47A70FFF7EDFF201EA4F10104F7D1CD
:1014700010BD00EBC001C9004FF0E0225161002116
:1014800091610521116100BF4FF0E021096901F46C
:1014900080310029F8D004214FF0E022116170471B
:1014A00038B54D480078012810D14C4890F900001B
:1014B0004B4991F90010884208D14A4890F9000040
:1014C000401E494991F9001088423ED042480078B8
:1014D000022810D1414890F90000414991F90010CB
:1014E000884208D13F4890F90000401C3E4991F9DC
:1014F0000010884229D038480078032810D1374896
:1015000090F90000401E364991F90010884207D139
:10151000344890F90000344991F90010884214D001
:101520002D480078042855D12C4890F90000401C23
:101530002B4991F9001088424CD12A4890F90000BB
:10154000294991F90010884244D12848244A009042
:101550001278D206110E244A107808231A4600F099
:1015600019FD00BFFEF724FE0446C01704EB1070FF
:101570000011A4EB001040B219490870FEF718FEE4
:101580000446C01704EB5070C010A4EBC00040B27A
:1015900015490870084690F90010114890F90000AC
:1015A00001F0B6FA0028DDD111480078401C10493E
:1015B000087010480078401C0E4908700E48084A10
:1015C00000901278D206110E074A107808231A46A6
:1015D00000F0E0FC38BD00000300002040000020C7
:1015E000000000205E000020010000202A490008C1
:1015F0000200002004000020224900082DE9F041EB
:10160000024600250026002000230024002791F830
:1016100003C00CF00F0591F803C00CF0100CBCF1E6
:10162000000F03D091F802C04CEA050591F800C004
:10163000BCF1000F31D0146800202BE04FF0010CFA
:101640000CFA00F3B1F800C00CEA03069E4220D168
:1016500083004FF00F0C0CFA03F7BC4305FA03FCB0
:101660004CEA040491F803C0BCF1280F06D14FF0F6
:10167000010C0CFA00FCC2F814C00AE091F803C097
:10168000BCF1480F05D14FF0010C0CFA00FCC2F878
:1016900010C0401C0828D1D31460B1F800C0BCF1C0
:1016A000FF0F34DD546800202EE000F1080C4FF0ED
:1016B000010808FA0CF3B1F800C00CEA03069E42D8
:1016C00021D183004FF00F0C0CFA03F7BC4305FA4D
:1016D00003FC4CEA040491F803C0BCF1280F05D1C7
:1016E00000F1080C08FA0CF8C2F8148091F803C055
:1016F000BCF1480F07D100F1080C4FF0010808FABF
:101700000CF8C2F81080401C0828CED35460BDE805
:10171000F0810246002093680B400BB1012000E0ED
:1017200000207047016170470AB1016100E041612A
:10173000704700BFFEE7000070B505254FF400615B
:101740000548FFF7E6FF044600BF281EA5F101018A
:10175000CDB2FAD1204670BD000C014070B50446F0
:10176000052522464FF480610448FFF7DDFF00BFE6
:10177000281EA5F10101CDB2FAD170BD000C0140C7
:1017800070B50446052522464FF400610448FFF772
:10179000CBFF00BF281EA5F10101CDB2FAD170BD6B
:1017A000000C0140022000BF011EA0F10102D0B2D6
:1017B000FAD1704708B50121082000F0A7FC1420D9
:1017C0008DF8030003208DF802008002ADF80000C0
:1017D00069460448FFF712FF4FF440610148FFF7E4
:1017E000A1FF08BD000C014008B50121082000F050
:1017F0008DFC14208DF8030003208DF802004FF4B7
:101800008070ADF8000069460A48FFF7F7FE4FF414
:101810000070ADF8000069460648FFF7EFFE0122B0
:1018200011020448FFF780FF012251020148FFF72F
:101830007BFF08BD000C01402DE9F04F8BB0052067
:10184000FFF7FFFD3B2000F06AF904463C2000F062
:1018500066F9814649EA042108B202F009FA054610
:101860004FF08D4102F026F9954908603D2000F0C7
:1018700056F904463E2000F052F9814649EA042117
:1018800008B202F0F5F905464FF08D4102F012F969
:101890008B4948603F2000F042F90446402000F0A8
:1018A0003EF9814649EA042108B202F0E1F9054611
:1018B0004FF08D4102F0FEF881498860432000F02E
:1018C0002EF90446442000F02AF9814649EA042111
:1018D00008B202F0CDF905467A4902F0EBF87849F2
:1018E000C860452000F01BF90446462000F017F9B7
:1018F000814649EA042108B202F0BAF90546714965
:1019000002F0D8F86E490861472000F008F9044653
:10191000482000F004F9814649EA042108B202F0A7
:10192000A7F90546674902F0C5F8654948614120B5
:1019300000F0F5F80446422000F0F1F8814649EA4B
:10194000042108B202F094F906465F4902F0B2F8A9
:1019500005465E4902F040F859498861886802F0FE
:101960000FF8CDE902015649486802F009F8CDE9BF
:101970000001DDE9022300F0C5FE07460022544BBA
:1019800001F00AFE05464FF00042524B01F070FC98
:10199000824601F07FFB09904949886801F0F0FF19
:1019A000CDE900014649086801F0EAFF0746DDE994
:1019B000002300F0A7FE81F000410022444BCDE956
:1019C000020101F0E9FD05464FF00042414B01F0F4
:1019D0004FFC824601F05EFB08903949486901F0EE
:1019E000CFFF3D4A3D4BCDE9020101F0D5FD074651
:1019F00088463349C86901F0C3FF82463A464346E8
:101A000001F07AFB054601F045FB07902C49C868B8
:101A100001F0B6FF8246304A304B01F0BDFD07466B
:101A200088462749086A01F0ABFF3A464346CDE9AC
:101A3000020101F061FB054601F02CFB06902049F4
:101A4000086901F09DFF0546234A244B01F0A4FDDF
:101A5000074688461A49486A01F092FF3A464346CB
:101A6000CDE9020101F048FB824601F013FB05902D
:101A70001B48049012490798C8611A48099902F056
:101A800057F905461648069902F052F906462946C6
:101A900001F0A2FF0A4908621248089902F048F9C9
:101AA00005460F48059902F043F90646294601F01C
:101AB00093FF0349486208460BB0BDE8F08F000071
:101AC00018000020333383410000AA43B81E12429D
:101AD00000806640FB2109407B14AE47E17A743FE9
:101AE0002DCF733F300D433D10B5FFF763FE8021CE
:101AF0006B2000F033F86420FFF7A3FC00216B207B
:101B000000F02CF80421192000F028F800211C20F6
:101B100000F024F818211B2000F020F810BD70B54B
:101B2000044601F0D5F9D02001F0B1F901F0A0F997
:101B3000204601F0ACF901F09BF901F0C9F9D12080
:101B400001F0A5F901F094F901F078F905460120BA
:101B500001F0B2F901F0CAF9284670BD70B505462A
:101B60000C4601F0B5F9D02001F091F901F080F9AF
:101B7000284601F08CF901F07BF9204601F087F945
:101B800001F076F901F0B2F970BD000038B53C48BB
:101B9000007890B100F008FF0A230022181A8A4149
:101BA0006CD200F07DFEFFF77BFC01F0D5F800F071
:101BB00065FF002001F01CFA60E03248007801283F
:101BC0002AD1FFF74AFC00F0CFF801232EA21421FE
:101BD000002000F005FA01232FA20021022000F0CE
:101BE000FFF9012334A20021062000F0F9F936485C
:101BF000007802F055F8044601200346224664218D
:101C00000090062000F00AFA0320FFF726FC0020CF
:101C10001C4908702C4908701A48007802282BD1FA
:101C20000120FFF71AFC00F09FF8012316A21421EF
:101C3000002000F0D5F9012324A20021022000F0A9
:101C4000CFF901231CA20021062000F0C9F91E488B
:101C5000007802F025F8044601200346224664215C
:101C60000090062000F0DAF90320FFF7F6FB0020D1
:101C7000044908701449087000F06EFF38BD000078
:101C8000050000200700002047616D65206F766524
:101C9000722021210000000054686520736E616B82
:101CA00065277320686561642068697420746865BD
:101CB0002077616C6C2E0000596F75722073636F12
:101CC0007265203A0000000004000020546865207E
:101CD000736E616B6527732068656164746F7563EB
:101CE0006865642068697320626F64792E00000063
:101CF00000BFFEE77047000070B5002100230F22EF
:101D0000C47804B3154C246804F4E064C4F5E064BA
:101D1000210AC1F10403CA40447804FA03F184782B
:101D20001440214309010E4C0678A155047804F0B3
:101D30001F050124AC4005786D11AD0005F1E025CB
:101D4000C5F8004109E0047804F01F050124AC4007
:101D5000044D0678761145F8264070BD0CED00E084
:101D600000E400E080E100E070B500240EE0002116
:101D7000204600F08DF8002504E0002000F0AFF8C8
:101D8000681CC5B2802DF8DB601CC4B2082CEEDBE9
:101D900070BD10B504462E2000F08BF814B9A620B3
:101DA00000F087F8012C02D1A72000F082F810BDC6
:101DB00010B5FFF719FDAE2000F07BF8D52000F03C
:101DC00078F8802000F075F8A82000F072F83F2025
:101DD00000F06FF8D32000F06CF8002000F069F8F4
:101DE000A12000F066F8C82000F063F8DA2000F0C7
:101DF00060F8122000F05DF8812000F05AF8CF2042
:101E000000F057F8D92000F054F8F12000F051F814
:101E1000DB2000F04EF8302000F04BF8A42000F05A
:101E200048F8A62000F045F88D2000F042F8142074
:101E300000F03FF8FFF798FFAF2000F03AF810BD30
:101E400010B504462E2000F034F81CB1272000F015
:101E500030F802E0262000F02CF8002000F029F8ED
:101E6000002000F026F8072000F023F8072000F0FB
:101E700020F8002000F01DF87F2000F01AF82F2035
:101E800000F017F810BD10B52E2000F012F810BDAC
:101E900070B505460C4645F0B00000F00AF8102178
:101EA00041EA141000F005F804F00F0000F001F80A
:101EB00070BD10B5044601F0A1F8782001F072F869
:101EC00000F0F4FA002001F06DF800F0EFFA20467F
:101ED00001F068F800F0EAFA01F0B0F810BD10B5B2
:101EE000044601F08BF8782001F05CF800F0DEFA8F
:101EF000402001F057F800F0D9FA204601F052F8DE
:101F000000F0D4FA01F09AF810BD00002DE9F04776
:101F10000646894617469846A7F12000C5B24946AD
:101F20003046FFF7B5FFB8F1000F1FD0002407E0DF
:101F3000164901EB0511085DFFF7D1FF601CC4B223
:101F4000082CF5DB711CC8B24946FFF7A1FF00243D
:101F500009E00E4901EB051204F10801505CFFF79E
:101F6000BEFF601CC4B2082CF3DB0DE0002409E0C6
:101F700005EB4501064A02EB4101085DFFF7AFFFA3
:101F8000601CC4B2062CF3DBBDE8F08732430008C6
:101F90000A4100082DE9F0478046894616461C464E
:101FA000DDF820A0002513E008EB0501C8B2494682
:101FB000FFF76EFF002707E005FB06711AF8010026
:101FC000FFF78DFF781CC7B2B742F5DB681CC5B2BE
:101FD000E11704EB5171B5EBE10FE5DBBDE8F087EC
:101FE0002DE9F04107460C461546984600260FE0BD
:101FF000AA5D434621463846FFF788FF04F10800F2
:10200000C4B2782C02DD0024B81CC7B2701CC6B262
:10201000A85D0028ECD1BDE8F08100002DE9FF5F4C
:1020200006460C4691469A46DDF838B00025BAF1CE
:10203000000F06D0BAF1010F0ED0BAF1020F1FD176
:1020400014E0484601F09CFC07463A460B461AA1AC
:102050006846FEF7E7F815E0484601F0EDFD074653
:102060003A4617A16846FEF7DDF80BE0484601F056
:10207000E3FD07463A4613A16846FEF7D3F801E0B0
:10208000BDE8FF9F00BF10E01DF805205B4621461C
:102090003046FFF73BFF04F10800C4B2782C02DDA4
:1020A0000024B01CC6B2681CC5B21DF8050000288B
:1020B000EAD100BFE4E7000025302E3366000000BF
:1020C00025640000255800007047000029B1064A29
:1020D000D2690243044BDA6104E0034AD2698243C5
:1020E000014BDA61704700000010024029B1064A36
:1020F00012690243044B1A6104E0034A12698243E5
:10210000014B1A61704700000010024029B1064AD5
:1021100092690243044B9A6104E0034A9269824344
:10212000014B9A617047000000100240704710B5E3
:1021300000F002F810BD00000CB5002001900090E6
:102140003348006840F480303149086000BF3048AF
:10215000006800F4003000900198401C0190009845
:1021600018B90198B0F5A06FF1D12948006800F4C2
:10217000003010B10120009001E000200090009894
:10218000012843D12348006840F01000214908602D
:102190000846006820F0070008600846006840F024
:1021A000020008601A4840681949486008464068BB
:1021B00048600846406840F48060486008464068CF
:1021C00020F47C1048600846406840F4E8104860FD
:1021D0000846006840F08070086000BF0C48006846
:1021E00000F000700028F9D00948406820F0030092
:1021F000074948600846406840F00200486000BF58
:102200000348406800F00C000828F9D10CBD00001C
:1022100000100240002002407047000010B5134833
:10222000006840F001001149086008464068104904
:1022300008400E494860084600680E4908400B49AE
:1022400008600846006820F480200860084640685E
:1022500020F4FE0048604FF41F008860FFF767FF1E
:102260004FF000600449086010BD000000100240FB
:102270000000FFF8FFFFF6FE08ED00E010B50121B9
:10228000074800F02EF8012808D10121044800F089
:1022900017F804480078401C0249087010BD00007F
:1022A000000400401400002021B1028842F08002A6
:1022B000028004E002884FF67F731A400280704764
:1022C000CA430282704721B1028842F001020280B3
:1022D00004E002884FF6FE731A4002807047818244
:1022E000704702460020138A0B400BB1012000E02A
:1022F000002070471AB183890B43838102E08389F0
:102300008B43838170470000002202881D4B984256
:102310000ED01D4B98420BD0B0F1804F08D01B4B14
:10232000984205D01A4B984202D01A4B984204D1D9
:102330004FF68F731A404B881A43174B984207D0B9
:10234000164B984204D04FF6FF431A40CB881A43ED
:1023500002808B8883850B8803850A4B98420BD0BB
:10236000094B984208D00E4B984205D00D4B98422D
:1023700002D00D4B984201D10B7A03860123838250
:1023800070470000002C0140003401400004004070
:1023900000080040000C0040001000400014004005
:1023A00000400140004401400048014000BFFEE7FA
:1023B000490050EAC12018BF04204A0D18BF40F060
:1023C000010040F2FF72B2EB515F08BF40F0020023
:1023D000012808BF052070472DE9F0414F1E00EB92
:1023E000C7010446D1E9000115461E4637F0060232
:1023F0000DD02A46334601F0CFF87F1E04EBC70309
:10240000D3E9002300F078FE37F00602F1D1022F65
:1024100025D0042F13D0062F18BFBDE8F0812A461F
:10242000334601F0B9F8D4E90A2300F065FE2A46E4
:10243000334601F0B1F8D4E9082300F05DFE2A46E6
:10244000334601F0A9F8D4E9062300F055FE2A46E8
:10245000334601F0A1F8D4E9042300F04DFE2A46EA
:10246000334601F099F8D4E9022300F045FE2A46EC
:10247000334601F091F8D4E90023BDE8F04100F0C3
:102480003BBE012201F0FBBD00F036BE024A002037
:10249000110701F0F4BD000001FDFFFF30380A28EC
:1024A00001D20120704700207047000010B50122C2
:1024B00051020B48FFF738F9FFF774F901221102B6
:1024C0000748FFF731F9FFF76DF900224FF48071EB
:1024D0000348FFF729F9FFF765F9204610BD000012
:1024E000000C01402DE9F84F04460D4621F0004054
:1024F00000917349814211DC7249884201DC06D1A6
:102500002CB120462946BDE8F84FFFF7BABF6E4808
:10251000002DCCBF6D496E49BDE8F88F6D498142F1
:1025200011DD6D498142D8BF4FF0FF366DDD204689
:102530002946FFF73DFF042808BFFFF7A7FF204605
:102540002946BDE8F88F6549654F25F00045814271
:1025500033DD6449814219DD002632464FF0804365
:102560002046294600F0C8FD80468A4601222046C2
:10257000294601F084FD00223B4601F017F942464E
:10258000534600F075FE04460D463EE0012600224B
:10259000BA463B462046294600F0AEFD80460F462F
:1025A000002253462046294601F000F942463B46A8
:1025B00000F05EFE04460D4627E04B4981421BDDDC
:1025C000DFF828A10226002253462046294600F0C3
:1025D000E3FF00223B4600F08FFD80460F460022BD
:1025E00053462046294601F0E1F842463B4600F0BA
:1025F0003FFE04460D4608E0032622462B460020F7
:102600003B4900F035FE04460D4622462B46104657
:10261000194600F0C1FF8B46824602460B4600F089
:10262000BBFF07460246334888460B4606217844DE
:10263000FFF7D2FE52465B4600F0AEFF82462E48C0
:102640008B463A46434605217844FFF7C5FE3A4695
:10265000434600F0A1FF02460B46002E5046594665
:102660000CDA00F049FD22462B4600F095FF01B040
:1026700022462B46BDE8F04F01F08CB800F03CFD3F
:1026800022462B4600F088FF1C4A7A4402EBC60320
:10269000D3E9002301F08AF822462B4601F086F8A0
:1026A000174A7A4402EBC603D3E9002301F072F81B
:1026B000009A002AB8BF81F00041BDE8F88F000001
:1026C000000010440000F07F182D4454FB21F93F16
:1026D000FB21F9BF0000DC3F0000203E0000F33F7B
:1026E0000000F03F0000E63F008003400000F83F9C
:1026F0000000F0BFAE2F00006C2F00000A2F00007A
:10270000D22E00002DE9F04D9446CCF1000423F0C8
:1027100000464CEA0404594F46EAD4749A46884667
:1027200021F00042BC4206D8454240EA050442EA94
:10273000D474BC4204D9BDE8F04D6246FFF7A4BE94
:10274000AAF14055A5F17F6555EA0C040BD002248F
:1027500004EAAA744A4DDFF82CE144EAD87452EA3C
:10276000000B04D00CE0BDE8F04DFFF7BBBE002C21
:1027700014BF012CBDE8F08D022C30D0032C32D0D8
:1027800056EA0C0B0AD0BE4220D1BA4209D126F03B
:10279000804622F080423346114617E000291ADBBA
:1027A00025E0DFF8E4B0FB44002C04BFDBE90001C6
:1027B000BDE8F08D012C02BFDBE9000181F0004192
:1027C000BDE8F08D022C0AD0032C0CD0BA4212D1F5
:1027D000B8F1000F0BDA2A482C49BDE8F08D2846E5
:1027E0002B49BDE8F08D28467146BDE8F08D2448A0
:1027F0002849BDE8F08D921B12153C2AC4BF204F1A
:10280000244E10DCBAF1000FBEBF12F13C0F0027BE
:102810003E4608DB624600F02BFD21F00041FFF749
:1028200061FE07460E4694B1012C08BF86F00046B3
:102830000DD0194A194B022C3846314615D000F0FC
:10284000B5FF2A46BDE8F04D114B00F0AFBF0022A6
:1028500013463846314600F063FE04BF0220FDF700
:102860001FFE38463146BDE8F08D00F09FFF2A4636
:10287000BDE8F04D064B00F08DBF00000000F07F7A
:10288000182D4454FB2109C0662E0000FB21F9BF1E
:10289000FB210940FB21F93F075C143326A6A13C2C
:1028A00010B531493148006801F00EFA10D21E20EF
:1028B000FEF7C7FD2C492D48006801F005FA07D244
:1028C0002B480078022803D001202949087010BD48
:1028D0004FF082412548006801F0F6FA11D21E201F
:1028E000FEF7AFFD4FF082412048006801F0ECFA9E
:1028F00007D21F480078012803D002201C49087025
:10290000E5E71C491C48006801F0DEFA10D21E20E1
:10291000FEF797FD17491848006801F0D5FA07D26D
:1029200013480078042803D0032011490870CEE72B
:102930004FF041411048006801F0C6F911D21E2045
:10294000FEF77FFD4FF041410B48006801F0BCF9F4
:1029500007D207480078032803D0042004490870F0
:10296000B5E700BFB3E700000000E0C010000020A2
:10297000030000200000E0400C00002010B5FEF72E
:102980005BFF0649086008460068006A0449086061
:1029900002480068406A0349086010BD0800002032
:1029A0000C00002010000020014800780021704732
:1029B0001400002008B5FFF7FBF9FFF795F80F4862
:1029C00040238022002100900846FFF7E3FA02200E
:1029D000FEF743FD0120FFF733FA40F65430FEF7CF
:1029E00030FDFFF750FA0120FEF737FDFFF7BCF985
:1029F00000F0A8FA0020FFF7CCF908BD3A4900081A
:102A00001FB501210220FFF771FB00210220FFF713
:102A10006DFB01210220FFF759FB01211648FFF74A
:102A200043FC4720ADF804004CF24F30ADF80800ED
:102A30000020ADF8060001A90F48FFF765FC012151
:102A40000D48FFF74CFC012211460B48FFF752FCE2
:102A50001D208DF8000000208DF801008DF8020087
:102A600001208DF803006846FFF746F9012102486E
:102A7000FFF729FC1FBD00000004004010B51E48F0
:102A800090F90000401C60B11C4890F90000401C07
:102A900038B119480078102803D018480078082861
:102AA00009D100211648FFF70EFC002015490870D7
:102AB000012015490870012419E00F4890F9000021
:102AC0000D490957884210D10C4890F900000B4974
:102AD0000957884209D100210948FFF7F4FB00207B
:102AE00008490870022008490870601C44B2074871
:102AF00000788442E1DB10BD400000205E00002031
:102B00000004004005000020070000200200002013
:102B100002460B4600210BE008484056904205D182
:102B200007484056984201D101207047481CC1B265
:102B3000044800788142EFDB0020F6E740000020E7
:102B40005E00002002000020FFF734FF03E0FFF7E3
:102B50001DF8FFF713FFFAE708B56F496F480068E3
:102B600001F0B2F81FD26E48007804281BD06C48E0
:102B70000078032817D01E20FEF763FC66496748DB
:102B8000006801F0A1F80ED2002366A219460320C6
:102B9000FFF726FA002364A219460520FFF720FA62
:102BA00001205F4908704FF082415C48006801F0E5
:102BB0008BF920D25A48007804281CD05848007855
:102BC000032818D01E20FEF73CFC4FF082415348EA
:102BD000006801F079F90ED2002352A219460520AF
:102BE000FFF7FEF9002350A219460320FFF7F8F97A
:102BF00002204B4908704D494D48006801F064F9C6
:102C000027D21E20FEF71DFC48494948006801F004
:102C10005BF90AD242480078032806D1FFF7A4F8EE
:102C200000F090F901203E49087040494048006892
:102C300001F04AF90DD23F48007850B93848007881
:102C4000042806D1FFF790F800F07CF90120344900
:102C500008704FF041413648006801F035F859D20C
:102C60001E20FEF7EEFB4FF041413148006801F0B5
:102C70002BF81ED22A48007801281AD1FFF774F8E1
:102C80002D4840238022002100900846FFF782F95A
:102C90000320FEF7E2FB2948402380220021009018
:102CA0000846FFF777F90320FEF7CBFB03201C490A
:102CB00008704FF041411E48006801F005F829D224
:102CC00017480078022825D1FFF79AFE04201C49F6
:102CD000087003201B49087005201B490870062056
:102CE0001A49087005201A4908700320194908700C
:102CF0000420174948700320164948701449887009
:102D000014498870FFF730F801200A490870042040
:102D10000349087008BD00000000E0C0100000205A
:102D2000060000202D3E0000202000000000E040B2
:102D30000C000020050000203A4D00083A51000820
:102D400003000020020000200000002001000020FD
:102D5000400000205E00002038B52F48007800B900
:102D600038BD2E482E4A00901278521E2D4B9A5C88
:102D7000D206110E2A4A1278521E2B4B985C082359
:102D80001A46FFF707F926480078401EC4B209E04A
:102D9000601E2449085C0855601E2349085C0855DC
:102DA000601EC4B2002CF3DC20480078012806D055
:102DB00002280BD0032810D004281CD114E01A4894
:102DC0000078401E40B21849087014E01648007898
:102DD000401C40B2144908700DE012480078401EB3
:102DE00040B21049087006E00E480078401C40B21E
:102DF0000C49087000BF00BF00F086F80C480D4A6F
:102E000000901278D206110E0B4A107808231A4649
:102E1000FFF7C0F800BFA3E7050000202A4900081B
:102E200002000020400000205E000020030000207F
:102E300022490008000000200100002070B5002594
:102E40000120FEF79DFC00240EE00120FEF786FC29
:102E5000FEF772FC012802D18020204105430020AA
:102E6000FEF77CFC601CC4B2082CEEDB284670BD6B
:102E700010B50120FEF784FC0120FEF76FFCFEF781
:102E80005BFC04460020FEF769FC204610BD70B5CF
:102E9000054600240DE08021214101EA0500FEF7EE
:102EA0006FFC0120FEF75AFC0020FEF757FC601C67
:102EB000C4B2082CEFDB70BD10B504462046FEF707
:102EC0005FFC0120FEF74AFC0020FEF747FC10BD26
:102ED00010B50120FEF754FC0120FEF73FFC002056
:102EE000FEF74EFC0020FEF739FC10BD10B50020A7
:102EF000FEF734FC0020FEF743FC0120FEF72EFC19
:102F00000120FEF73DFC10BD38B500240DE0094856
:102F1000094A0090125DD206110E084A105D08237E
:102F20001A46FFF737F8601CC4B20548007884429F
:102F3000EDDB38BD32490008400000205E00002073
:102F40000200002010B501230BA21E210020FFF774
:102F500047F800230BA219460320FFF741F800238E
:102F600009A214210320FFF73BF800230AA2142131
:102F70000520FFF735F810BD47616D65206D656E62
:102F8000750000002D3E0000486F7720546F2050E0
:102F90006C617920000000005374617274204761F5
:102FA0006D65200070B5054600241BE0802020419F
:102FB00000EA05024FF400710C48FEF7B5FBFEF77E
:102FC000F1FB012211020948FEF7AEFBFEF7EAFB16
:102FD00000224FF480710548FEF7A6FBFEF7E2FBE6
:102FE000601CC4B2082CE1DB70BD0000000C014085
:102FF00001490870704700001400002010B501223C
:1030000051020D48FEF790FB012211020A48FEF71B
:103010008BFBFEF7C7FB00224FF400710648FEF75A
:1030200083FBFEF7BFFB00224FF480710248FEF7DE
:103030007BFBFEF7B7FB10BD000C014010B5002272
:103040004FF400710748FEF76FFB0122110205489B
:10305000FEF76AFBFEF7A6FB012251020148FEF7CC
:1030600063FB10BD000C014010B500290AD00878A0
:10307000002807D005487844FDF7D0FD002801D08E
:10308000002010BD0248784410BD00005626000004
:103090004E26000021F00042A2F16052B2F5801FDE
:1030A00001F0004328BFD2F17F6C0BD95FEA001C0E
:1030B00043EAC20242EB507018BF704728BF20F0AD
:1030C00001007047B2F5801FBCBF184670474FEA39
:1030D000410C1CF5001F02D2084600F0F0BE70B58E
:1030E00000F004FB00000089FFF7F6BF4FF000403E
:1030F000A0F580007047000010B591EA030F48BFAB
:1031000083F0004300F15A83841A71EB030C05D25B
:10311000121943EB0C03001B61EB0C01DFF824E1F7
:103120004FEA1154A4EB135C1EEA430F18BF9EEA4A
:10313000445F73D023EA0E03DCF1200E21EA045130
:1031400043F4801332D322FA0CFE10EB0E0023FA64
:103150000CFE41EB0E01CCF1200E03FA0EFE10EB3B
:103160000E0051F10001B1F5801FCCF1200E32D2DA
:1031700001EB045112FA0EF2BDE8104058BF70473F
:10318000401C38BF5FEA420218BF7047002814BFD6
:1031900020F0010041F100014FEA410313F5001F47
:1031A00038BF7047A1F1C04100F0EEBA012A43EBED
:1031B0000302ACF1200CDCF11F0E32BF4FF0000E09
:1031C00023FA0CF310EB030041EB0451B4EB115F55
:1031D000D0D0A1EB045101F5801149085FEA30001D
:1031E00001EB04510ED350F1000038BF12FA0EFE6D
:1031F00008D1BDE81040C9E7401C38BF5FEA420271
:10320000CAD1C3E7BDE810404FEA410313F5001FE0
:1032100038BF7047A1F1C04100F0B6BA9EEA445FE2
:1032200008D011EA5E0FBDE8104004BF01F0004174
:1032300000207047BDE8104070B500F057FA00BF9D
:1032400064FBBE3E0000E0FF02494FF0000000F0CA
:10325000E4BE00BF0000F87F491058BFC1F14041F3
:103260005B1058BFC3F140438B42EFF300807047BF
:103270002DE9C04130B4DFF8A0C23CEA111418BFF8
:103280003CEA131400F0EC8081EA03051CEA1114F7
:1032900044EAD57418BF1CEA131500F0C780A4EBEC
:1032A00005044FF0004545EAC12145EAC32341EA40
:1032B000505143EA525304F17F74994204F50034AB
:1032C0004FEAC0204FEAC22208BF904200F09C8023
:1032D0004FEA13650FF24016765D4FEA134506FB81
:1032E00005F7C7F1807706FB07F74FEAD737A7FB4B
:1032F00003687642C8F58038A7FB06CE38BFA8F130
:10330000010807FB08E64FF0000EA6FB028CE6FB67
:1033100003CEDCF1000CCEF1004E38BFAEF1010E51
:10332000A6FB0C584FF000074FF00005E6FB0E8798
:10333000A1FB08C6A0FB07CE16EB0E0645F1000563
:10334000E1FB076515F1E04E7EBFA4F580345FEA2E
:1033500046066D4116F1800745F100054FEA172733
:103360004FEA066647EA0567A6F1DE46B6F1805FDA
:103370004FEA15251FD9384624F0010C05EBC4711E
:10338000BCF1FE6F01EB0C1102D8F0BCBDE800816E
:1033900024425CBF01F5801E9EEAC47F02D4F0BCCB
:1033A000BDE80081244238D4F0BCA1F1C041BDE8A1
:1033B000004100F0E9B94FEAD22242EA43524FEA13
:1033C000D323A7FB02864FEAD02040EA415007FBF7
:1033D00003661EEA0E0F4FEAD12105FB026658BFB5
:1033E000A6EB0056B6EB00564FEA520E4EEAC37EED
:1033F00018EB0E0E56EB530EBDD518EB02085E41CE
:103400007F1C55F10005B6E74FF480154FF000071B
:103410004FF000064FF00008ADE7F0BC4FF00000A1
:1034200001F1C04101F00041BDE8008111EA0C1F2B
:103430000CEA131500D00CE013EA0C1F00F02580F5
:103440004FF00000F0BC81EA030101F00041BDE84B
:103450000081F0BCBDE8004181EA030100F094B9AD
:10346000F0BCBDE8004170B500F040F9097EFC3EBB
:1034700000F007B881EA03014FF0000001F00041BD
:10348000704781EA030100F07FB9F0BCBDE800415C
:103490004FF0000021497047FFFDFBF9F7F5F4F20A
:1034A000F0EEEDEBE9E8E6E4E3E1E0DEDDDBDAD8DF
:1034B000D7D5D4D3D1D0CFCDCCCBCAC8C7C6C5C43D
:1034C000C2C1C0BFBEBDBCBBBAB9B8B7B6B5B4B354
:1034D000B2B1B0AFAEADACABAAA9A8A8A7A6A5A43F
:1034E000A3A3A2A1A09F9F9E9D9C9C9B9A99999803
:1034F0009797969595949393929191908F8F8E8EA6
:103500008D8C8C8B8B8A8989888887878685858432
:1035100084838382828181800000FF070000F87F1E
:1035200051EA030C17D41CF5801F58BFBCF5801F4F
:1035300000F10680994218BF704708BF904270475B
:1035400007D711F5801F58BF13F5801F19D4994272
:103550007047894270471CF5801F08D5BCF5801F55
:10356000F7D58B4218BF704708BF824270474FF4AF
:10357000001C1CEB410F38BF1CEB430F01D28B42E8
:10358000704770B500F0B2F8922449004FF0005136
:103590004FF08053FFF760BEDFF848C170B51CEAFA
:1035A000111E1EBF1CEA13159EEA0C0F95EA0C0FA4
:1035B00000F06F8081EA030423EA4C134EEAD47EC4
:1035C00021EA4C1141F4801143F48013AE44A1FB75
:1035D000024CA0FB0365AEF17F7E361955EB0C055E
:1035E000A1FB034C4CF10003A0FB021C16EB0C06E4
:1035F000654153F10003094218BF46F0010613F478
:10360000007F0BD14FEA03314FEA0530340341EA22
:10361000155140EA16506FF003020AE04FEAC32149
:103620004FEAC520F40241EA555140EA56506FF086
:10363000020202EB2E4201EB025585EACE710AD05E
:103640005FEA440C18BF24F0004450F1000041F13F
:10365000000120EAD47040F2FE7C624500D270BDC9
:10366000A84214BF4FF080444FF04044002E08BFE2
:103670000024BEF1806FA8BFA1F1C041BDE8704039
:1036800080F282804FF0000001F1C04101F0004162
:1036900070479EEA0C0F0CEA131518BF95EA0C0F41
:1036A00006D04FF0000081EA030E0EF0004170BD1D
:1036B00000F01CF88900013E00F007B800F009B8DE
:1036C0004FEA430C5FEA5C5C08D081EA030100F03A
:1036D0005BB84FEA410C5FEA5C5CF6D14FF000004A
:1036E000014970470000FF070000F87F0EF1020E4D
:1036F0002EF0030E5EF8046B364205D4012A43EB2C
:10370000030515F5001F12D8012841EB010C1CF52B
:10371000001F0CD80ED14FEAD17C15F5001F0CEB21
:103720004C0C0CF1020C08BF4CEBD37C04E04FF0C6
:10373000080C01E04FEAD37C0CEB4C0526FA05F6A9
:1037400006F00706B6F1040C06D20EEB860CBDE8B7
:1037500070404CF0010C6047DFE80CF0090B0202EE
:103760004FF000414FF00000A1F5002170BD194657
:103770001046012851EB010418BFD4F5001484BF92
:10378000002001F0004170BD0808A0F500114FEACB
:103790003101704791EA030F10B581F000413FF508
:1037A000B3AC83F0004300F009B8000010B591EA13
:1037B000030F48BF83F000433FF5A6AC841A71EBBA
:1037C000030C07D212198CF0004C43EB0C03001BC6
:1037D00061EB0C01DFF8A4E14FEA1154A4EB135C98
:1037E0001EEA430F18BF9EEA445F00F0B08023EA50
:1037F0006E03524221EA0451C3EB6E0338BF5B1ED5
:10380000DCF1200E25D322FA0CFE10EB0E0043FA59
:103810000CFE41EB0E01CCF1200E03FA0EFE10EB74
:103820000E0051F10001CCF1200E29D412FA0EF253
:1038300001EB0451BDE8104058BF7047401C1CBF4D
:10384000B2F1004F704700280CBF491C20F0010066
:10385000704712EB020E43EB030218BF4FF0010E4C
:103860004EEA4202ACF1200CDCF11E0E54D943FAB0
:103870000CFE10EB0E0051F1FF31CCF11E0ED5D530
:103880000EF1010E12FA0EFE404141EB010101EB77
:10389000445C5FEA5C5C10D910EBDE7001EB045114
:1038A00038BFBEF1004FBDE8104018BF7047002878
:1038B0000CBF491C20F00100704730D24FEAD42CD5
:1038C00011F5001124F400641BD0B1FA81F20B3A17
:1038D000A41AA41ED2F12003914030FA03F3194335
:1038E000904001EBCC71002C01EB0451BDE810407D
:1038F000A8BF704701F1C0414FF0000001F0004146
:103900007047B0FA80F310FA03F100D110BDE41A49
:10391000173C4805C90AE4E701EB045110BD491002
:1039200001EB0451BDE810404FEA300002E04FF0D7
:10393000000170474A0008BF0042F8D0B2F5001FEE
:1039400028BF704701F000414FF0000070479EEA29
:10395000445F07D011EA5E0FBDE8104004BF0021AC
:1039600000207047BDE8104070B5FFF7BFFE00BFF4
:1039700040DFF63E83F00041104670470000E0FF54
:1039800043004FEAD30C4FEA3C0C43401FBF4007B3
:103990000CF1605113F0FE4F70471CF0006F03D123
:1039A00000200CF0004170470CF0004343EA5070D7
:1039B00010B540EACC0000F03CFA00BF00000092D5
:1039C0004FEA0001FFF7E0BE4FF000414FF000006A
:1039D000A1F500217047000090EA010F48BF81F077
:1039E000004100F1AA82421A3CBF801A89184FEAAE
:1039F000D0524FF07F4C1CEA410FA2EBD15318BFBD
:103A00009CEA026F00F03B804FF0004C4CEA002033
:103A10004CEA012121FA03FC10EB0C0C1ED202F13E
:103A2000FF325FEA1C2040EBC25038BF70471CF0E9
:103A30007F0F4FEA400C18BFBCF17F4F38BF704773
:103A4000C3F12003994008BF20F00100BCF17F4F73
:103A500038BF7047A0F1C04000F031BA4FEA3C00D7
:103A6000000A40EBC25028BF1CF0FF0F4FEA400C89
:103A7000E6D018BFBCF17F4F38BF7047EAE79CEA39
:103A8000026F05D010EA5C0F08BF00F000407047DD
:103A900010B500F0CEF900BF64FBBE3E401058BF29
:103AA000C0F14040491058BFC1F140418142EFF39D
:103AB000008070474FF47F0C1CEAD0121EBF1CEA36
:103AC000D11392EA0C0F93EA0C0F00F0858090EA74
:103AD000010F48BF42F4807240F4000C41F4000032
:103AE0002CF07F4120F07F4000B58142A2EB030221
:103AF0000FF2081CACEB504EC0F100009EF800E045
:103B00004FEA4E0E00FB0EFC38BF49004FEA2C1C5A
:103B100002F5FA020CFB0EF34FEACE1E4FEA112C0F
:103B20004FEAC1210EEB635E42EB22420EFB0CFC1E
:103B30004FEA1C5300FB03114FEA112C4FEA0131ED
:103B40000EFB0CFC4FEADC4C00FB0C11C14228BF01
:103B500009184CEB03335DF804EB10EB410143EB28
:103B6000C250B2F57C0F38BF704729D512F0F00F64
:103B70001CBF00F1C04000F000407047008182830C
:103B80008485868788898B8C8D8E8F91929395966C
:103B900097999A9C9D9FA0A2A3A5A7A8AAACAEB0F6
:103BA000B2B3B5B7B9BCBEC0C2C5C7C9CCCED1D4FB
:103BB000D7D9DCDFE2E6E9ECF0F3F7FAFE0000002B
:103BC0004FEA400C0CF1807CBCF17E4F28BF70475F
:103BD000B0F1C04000F073B990EA010F0CEAD113C4
:103BE00048BF42F48072624538BF634507D213F480
:103BF0007F0F16D080EA010000F00040704710B53A
:103C000000F017F9097EFC3E00F005B880EA0100DB
:103C100000F00040704780EA010000F0004000F032
:103C20004EB912F47F0F04BF0248704780EA0100CA
:103C300000F045B90000C07F41000B0ED3F19E0299
:103C400008D950F400034FEA032323FA02F048BFD7
:103C50004042704710B500F0ECF800BF4992248054
:103C6000002070476FF0004282EA20007047000099
:103C700010F0004148BF4042B0FA80F310FA03F25E
:103C8000C3F19D030BD051EAC35101EB122053063F
:103C900038BF704700F1010008BF20F001007047F5
:103CA000B0FA80F310FA03F2C3F19D030AD0D905EC
:103CB00001EB1220530638BF704700F1010008BF26
:103CC00020F001007047000050EA010C00F1138061
:103CD0001CF5000F58BFBCF5000F01D48842704797
:103CE00007D710F5000F58BF11F5000F15D4884203
:103CF0007047894270471CF5000F04D5BCF5000FD2
:103D0000F7D5814270474FF0807C1CEB400F38BFE5
:103D10001CEB410F01D28142704710B500F089F8C9
:103D2000922449004FF000504FF08051FFF7B6BE8B
:103D30004FF47F0C1CEAD0121EBF1CEAD11392EA8A
:103D40000C0F93EA0C0F00F0478090EA010F48BF78
:103D500042F480724FF0004C4CEA00204CEA012102
:103D600002EB0302A0FB0113A2F50002002918BF19
:103D700043F001035B0028BF4FEA330342EB2242CA
:103D80005FEA132C4CEBC2502EBFBCEB436FB2F575
:103D90007C0F70474FEA036CBCF1004F08BF20F066
:103DA0000100B2F57C0F38BF70470BD582F0FF02DF
:103DB00012F5803FC8BF704700F1C040D8BF00F087
:103DC0000040704700F5000C5FEA4C0C48BF70479C
:103DD000B0F1C04000F073B890EA010F0CEAD113C3
:103DE00048BF42F48072624538BF634504D280EA1E
:103DF000010000F00040704710B500F01AF800BF55
:103E00008900013E00F007B800F009B85FEA410CF4
:103E10005FEA1C6C08D080EA010000F050B85FEA4D
:103E2000400C5FEA1C6CF6D14FF00040A0F580001A
:103E300070470EF1020E2EF0030E5EF8044B244282
:103E400004D44FEA4102B2F17F4F11D84FEA400348
:103E5000B3F17F4F0CD80ED14FEAD07CB2F17F4F37
:103E60000CEB4C0C0CF1020C08BF4CEBD17C04E0C9
:103E70004FF0080C01E04FEAD17C0CEB4C0324FA24
:103E800003F404F00704B4F1040C06D20EEB840C26
:103E9000BDE810404CF0010C6047DFE80CF007086B
:103EA00002024FF00040A0F5800010BD084642001D
:103EB00018BFD2F1807288BF00F0004010BDFF2112
:103EC00041EAD050C005704751EA000C00F1138060
:103ED0001CF5000F58BFBCF5000F01D4814270479C
:103EE00007D711F5000F58BF10F5000F15D4814208
:103EF0007047894270471CF5000F04D5BCF5000FD0
:103F0000F7D5884270474FF0807C1CEB410F38BFDB
:103F10001CEB400F01D28842704780EA010081EA21
:103F2000000180EA0100FFF7F8BE000090EA010FEF
:103F300048BF81F000413FF556AD421A04D882F0E7
:103F40000042A0EB020011444FEAD0524FF07F4CE8
:103F50001CEA410FA2EBD15318BF9CEA026F4AD072
:103F60004FF0004C4CEA00204CEA012121FA03FCFE
:103F7000B0EB0C0C0FD412F0FE0F36D05FEA4C0001
:103F80001DD5001240EBC25038BF70471CF03F0FE8
:103F900018BF70470BE0A2F101025FEA1C2040EB62
:103FA000C25038BF70471CF07F0F18BF7047C3F175
:103FB0002003994014BF401E20F001007047800884
:103FC0004FEA122308BF7047B0FA80FCA2EB0C0244
:103FD000CCF1280C60FA0CF093EA122F04BF00EB2E
:103FE000C25070474FEAC3707047130A5FEADC1093
:103FF00008BF7047F6E79CEA026F04D010EA5C0F36
:1040000008BF0020704710B5FFF713FF40DFF63EF2
:1040100081F000407047FCF77BBB0CF00F03092BCD
:1040200008BF082000F059800A2B0BD0082B18BFBE
:10403000704708BF1CF0400F0AD04FF000004FF04F
:10404000000170471CF0400F18BF4FF00040704750
:104050001CF0100F08D020F0704300F07F4242EABD
:10406000D3014FEA4370704700F0604021F07F4277
:1040700042EA000201F07F4040EA727070474FF060
:10408000FF0C4CF4E06C1CEA11531CBF9CEA030CBF
:104090009445C2BFDA4201EB02517047002B0DD0AC
:1040A000BCF1000F0FD0002A01F00041A4BF41F085
:1040B000E04141F07F614FF00000704701F00041A6
:1040C0004FF00000704750EA01334FF09B0C18BFCF
:1040D0004CF0806C7FF4B8A870471CF4801F11D09E
:1040E0001CF4E02F03D06FEACC31490070474FF049
:1040F0004050EFF3008222F0704242EA000282F365
:10410000008870474FF0000070470000000000007A
:104110000000002F000000000700070000147F14BB
:104120007F1400242A7F2A120062640813230036B9
:104130004955225000000503000000001C224100E8
:10414000000041221C000014083E08140008083E2C
:104150000808000000A06000000808080808000027
:1041600060600000002010080402003E5149453EF6
:104170000000427F40000042615149460021414514
:104180004B31001814127F10002745454539003C7B
:104190004A49493000017109050300364949493649
:1041A00000064949291E0000363600000000563638
:1041B000000000081422410000141414141400001C
:1041C0004122140800020151090600324959513EAA
:1041D000007C1211127C007F49494936003E414162
:1041E0004122007F4141221C007F49494941007F13
:1041F00009090901003E4149497A007F0808087F02
:104200000000417F4100002040413F01007F081431
:104210002241007F40404040007F020C027F007F2F
:104220000408107F003E4141413E007F0909090614
:10423000003E4151215E007F091929460046494947
:1042400049310001017F0101003F4040403F001F14
:104250002040201F003F4038403F00631408146393
:1042600000070870080700615149454300007F417D
:10427000410000552A552A55000041417F000004A5
:1042800002010204004040404040000001020400DE
:10429000002054545478007F484444380038444443
:1042A000442000384444487F0038545454180008CF
:1042B0007E0901020018A4A4A47C007F08040478ED
:1042C0000000447D4000004080847D00007F102875
:1042D00044000000417F4000007C04180478007C0A
:1042E0000804047800384444443800FC242424188A
:1042F0000018242418FC007C0804040800485454C6
:10430000542000043F444020003C4040207C001CDE
:104310002040201C003C4030403C004428102844F1
:10432000001CA0A0A07C004464544C441414141439
:104330001414000000000000000000000000000055
:104340000000000000F80000000000000033300012
:10435000000000100C06100C060000000000000019
:10436000000040C07840C0784000043F04043F048F
:104370000400007088FC08300000001820FF211E97
:104380000000F008F000E018000000211C031E21CE
:104390001E0000F00888700000001E212324192749
:1043A000211010160E0000000000000000000000A8
:1043B0000000000000E018040200000000071820C0
:1043C000400000020418E000000000402018070030
:1043D0000000404080F0804040000202010F0102D6
:1043E0000200000000F0000000000101011F0101B7
:1043F0000100000000000000000080B0700000001C
:1044000000000000000000000000000101010101A7
:10441000010100000000000000000030300000003A
:104420000000000000008060180400601806010011
:10443000000000E010080810E000000F102020101D
:104440000F00001010F8000000000020203F202086
:10445000000000700808088870000030282422211D
:1044600030000030088888483000001820202011D3
:104470000E000000C02010F8000000070424243FB4
:10448000240000F80888880808000019212020115D
:104490000E0000E0108888180000000F1120201185
:1044A0000E0000380808C83808000000003F00006F
:1044B00000000070880808887000001C222121225A
:1044C0001C0000E010080810E0000000312222115A
:1044D0000F00000000C0C0000000000000303000ED
:1044E000000000000080000000000000806000006C
:1044F00000000000804020100800000102040810A5
:1045000020004040404040404000040404040404B3
:104510000400000810204080000000201008040261
:104520000100007048080808F00000000030360163
:104530000000C030C828E810E00007182724231422
:104540000B000000C038E0000000203C23020227DE
:10455000382008F8888888700000203F202020112B
:104560000E00C03008080808380007182020201066
:10457000080008F808080810E000203F202020105C
:104580000F0008F88888E8081000203F202023202A
:10459000180008F88888E8081000203F2000030071
:1045A0000000C03008080838000007182020221E2C
:1045B000020008F808000008F808203F2101012146
:1045C0003F20000808F8080800000020203F2020B5
:1045D000000000000808F8080800C08080807F0004
:1045E000000008F888C028180800203F200126385D
:1045F000200008F8080000000000203F20202020B4
:10460000300008F8F800F8F80800203F003F003FAD
:10461000200008F830C00008F808203F20000718E4
:104620003F00E01008080810E0000F1020202010C4
:104630000F0008F808080808F000203F21010101D8
:104640000000E01008080810E0000F18242438507B
:104650004F0008F8888888887000203F2000030CED
:1046600030200070880808083800003820212122F6
:104670001C00180808F8080818000000203F200057
:10468000000008F808000008F808001F202020207B
:104690001F000878880000C83808000007380E019D
:1046A0000000F80800F80008F800033C0700073C89
:1046B0000300081868808068180820302C03032C39
:1046C00030200838C800C83808000000203F20000B
:1046D000000010080808C8380800203826212020CB
:1046E0001800000000FE020202000000007F4040AF
:1046F0004000000C30C0000000000000000106383F
:10470000C00000020202FE000000004040407F00A6
:10471000000000000402020204000000000000008B
:104720000000000000000000000080808080808089
:104730008080000202040000000000000000000071
:1047400000000000808080800000001924222222C6
:104750003F2008F8008080000000003F1120201159
:104760000E000000008080800000000E112020203C
:104770001100000000808088F800000E1120201039
:104780003F200000808080800000001F2222222223
:104790001300008080F0888888180020203F2020A7
:1047A00000000000808080808000006B94949493CF
:1047B000600008F8008080800000203F2100002079
:1047C0003F2000809898000000000020203F20201B
:1047D0000000000000809898000000C08080807F6A
:1047E000000008F8000080808000203F24022D3067
:1047F0002000000808F8000000000020203F2020D2
:1048000000008080808080808000203F20003F204A
:10481000003F8080008080800000203F2100002039
:104820003F200000808080800000001F202020208A
:104830001F00808000808000000080FFA1202011E8
:104840000E000000008080808000000E112020A05B
:10485000FF80808080008080800020203F21200019
:104860000100000080808080800000332424242404
:104870001900008080E0808000000000001F2020E0
:1048800000008080000000808000001F2020201099
:104890003F20808080000080808000010E3008066C
:1048A000010080800080008080800F300C030C307D
:1048B0000F0000808000808080000020312E0E31AB
:1048C0002000808080000080808080818E701806AB
:1048D000010000808080808080000021302C222117
:1048E000300000000000807C020200000000003F59
:1048F000404000000000FF00000000000000FF003A
:1049000000000002027C800000000040403F0000E8
:104910000000000601010202040400000000000083
:104920000000FFFFC3C3C3C3FFFF0000000000007F
:104930000000007E7E7E7E7E7E0000000000000083
:104940000000000000000000000000000000000067
:1049500000000000000080800000000000000080D7
:1049600080000000000000000000808000000000C7
:1049700080800000000080808000000000000000B7
:104980000000000000000000000000000000000027
:104990000000000080800000008080800000000097
:1049A0000000000000000000000000000000000007
:1049B00000000000000000000000000000000000F7
:1049C00000000000000000000000000000000000E7
:1049D0000000181C1C1C1D1F1F1E1C181C1E1F1F46
:1049E0001D181C1C180000F0F030FFFF30F0F080A4
:1049F000FFFF3070F080FFFFFF0000000303C3E300
:104A0000FBFFDFCFC3C3C3C3C3C3C3C383030080E0
:104A1000C0F0FCFFFF03000000FFFFFFE0F0783C68
:104A20001C0C00000000000000000000000000005E
:104A30000000000000000000000000000000000076
:104A40000000000000000000000000000000000066
:104A50000000C0C0C7C7C7C7C7C7C7C7C7C7C7C782
:104A6000C7C7C7C0C0000183C1F8FF3F00000301F2
:104A7000FFFF00000301FFFFFF0000020E0F07FF12
:104A8000FFC1C1C1C1C1C1C1C1C1FFFFFF00000160
:104A90000301FFFFFF041E0E0FFFFFFF818080C098
:104AA000F8F81800000000000000000000000000FE
:104AB00000000000000000000000000000000000F6
:104AC00000000000000000000000000000000000E6
:104AD00000000101010101010101010101010101C8
:104AE00001010101010000010301000000000000BC
:104AF00001010100000003030300000000000003A7
:104B00000301010101010101010103030300000090
:104B1000000003030300000000000103030303037C
:104B20000101000000000000000000000000000083
:104B30000000000000000000000000000008FCFC75
:104B4000DC9C9CFCFC1800F8F818181818F8F8F809
:104B5000000040E0E00000FCFCFC000000FCFCFC6D
:104B60000000C0E0C0002060E0FEFE606020303049
:104B70003070FEFEFC303030300000C0C0C0C0C01D
:104B8000C0C0C0FEFEFEC0C0CCDCF8C8C0C0000083
:104B9000C0C0C0C0C0C0C0E0FEFEC0C0C0C0C0C079
:104BA000C0C08000E0E0E47C7C7860647C7E78605B
:104BB00060707C7CECE0E000000000000000FFFF83
:104BC000BD9999FFFF80001FDFDC1C1C9CDF9F0F3D
:104BD000000000030F3F3CFDFFFF000000FFFFFF50
:104BE000183E1F030000103838FFFF1C0C06167E0D
:104BF000F6E6C7C7E7F67E3E0E00000080C0E0F094
:104C0000783C0FFFFFFF0F3C78F0E0C08000000011
:104C10000101010181E1F1FF3F1F7FF1C18101012C
:104C200001010000E1E3E3E0E6E6E6E6E6F6FEFE8B
:104C3000FEEEE6E0E3E3E100000000000001030314
:104C40000303031F1F090C0F0701000000030F0ED1
:104C500008000E0E0E0E0E0F0F0F0E0E0E0F0F0F82
:104C60000E0E0E0E0E00001C1C1F0F00000C1C0E62
:104C70000E07030307070E0E0C04000103030100D7
:104C80000000001F1F1F00000000010303010000BF
:104C90000C1E0E0F07030100000000010307070FA1
:104CA0000E04000000000000001C1C1C1C1F0F0054
:104CB00000000000000000000000000000000000F4
:104CC00000000000000000000000000000000000E4
:104CD00000000000000000000000000000000000D4
:104CE00000000000000000000000000000000000C4
:104CF00000000000000000000000000000000000B4
:104D000000000000000000000000000000000000A3
:104D10000000000000000000000000000000000093
:104D20000000000000000000000000000000000083
:104D30000000000000000000000000000000000073
:104D4000000050D07878D05078F0D0100000E018F3
:104D500018F0E01018F0E00000F8A828A8F8A8283B
:104D6000E8F80000D848C8F87848D848D8080000C3
:104D7000404000000000000000003030B0F038B0CB
:104D8000B0B0B0300080F018F84040C8787848C81B
:104D90000098900020F82020F820000000000098E3
:104DA000F0C0000000000000000000000000000053
:104DB00000000000000000000000000000000000F3
:104DC000000012120F063F060E0B1212000C0F0805
:104DD000080F3F08080F0D000435120F0100013FB6
:104DE000060404003F101F1F15151F103F00000090
:104DF0000808000000000000000006033F19111120
:104E000011111F1F00013F000F0C24170E09182756
:104E1000101F1F113D3731313F31110010080603BB
:104E20000000030618100000301800000000000009
:104E30000000000000000000000000000000000072
:104E400000000888F8DCC8C8C8C8C80800E0FC042E
:104E5000FC20E434DC14F40000EC0800FC54D454CE
:104E60007CFC000078784040FC4040407800000026
:104E700000000000000000000000240C10FC5CD0CA
:104E8000382CE868002868C8F82020FC30B4D81016
:104E9000007C5CD4D47CD4D4547C0000E43424F46E
:104EA0009C84E42424E400000020000000000000B2
:104EB00000000000000000000000000000000000F2
:104EC0000000060B0808080F0C08080800000F0077
:104ED00007021B0C07040B0008070C080F0E0B0938
:104EE0000B0E08000F0808080F0808080F00000C38
:104EF0000E0C00000000000000000E0B0E0B080757
:104F000001090F0100080603030C0C040709180E21
:104F1000020A09070000000F010302000F08080F32
:104F20000A0A0F08080F000000040000000000003B
:104F30000000000000000000000000000000000071
:104F4000000000000000FE1010101000000202021D
:104F500002FE1632224246000484E43E2664E42423
:104F600024240400C4E4FC2C26242424E404007833
:104F7000FE02FE00FA0AEE0AFA00585CF2D24C90E9
:104F8000A488FEC0000436E4FC0C2868080EFE0865
:104F900000FC3C74C416F604C47404009286CC7EF3
:104FA00024E81ED6F4D4001434E4BC0018FE88CAE9
:104FB00028000000000000000000000000000000C9
:104FC0000000040404068704040404040000000034
:104FD000000700000000000002010404840607042A
:104FE000040404000000070282020202070000001D
:104FF0008700030105820302050003050780010005
:1050000000000780000603010103000404060300FA
:10501000040300040504040607040400070407044D
:105020000703040603000006030001060603030449
:105030000603000000000000000000000000000067
:10504000000000000000FF0C0C0C0C00000101012E
:1050500001FF0D091131210082C23A1F1312F21211
:10506000121202406232FE1713121212F2020032C2
:10507000FF12163A2AE3232A3E00CEEB2BFF2AEA40
:10508000087F00FF0000000000000000000000009A
:105090000000000000000000000000000000000010
:1050A0000000000000000000000000000000000000
:1050B00000000000000000000000000000000000F0
:1050C00000000101010101010101010100000000D6
:1050D00000030000000000000100010101010101C6
:1050E00001010100000003010101010103000002B0
:1050F0000300030303030303030001010003010191
:105100000002020300000000000000000000000098
:10511000000000000000000000000000000000008F
:10512000000000000000000000000000000000007F
:10513000000000000000000000000000000000006F
:10514000000000000000000000000000000000005F
:10515000000000000000000000000000000000004F
:10516000000000000000000000000000000000003F
:10517000000000000000000000000000000000002F
:10518000000000000000000000000000000000001F
:10519000000000000000000000000000000000000F
:1051A00000000000000000000000000000000000FF
:1051B00000000000000000000000000000001026B9
:1051C0000CF87E48D8BCAEE8A800006CC4FC3810CF
:1051D0003EFE10D45C0030FC66100868683E3E68F5
:1051E000680804E4B49494FEFE9494F4E40400E6A5
:1051F000F61616DED61616F6060004F414B4F45CA1
:1052000054F41414F40000003020000000000000EA
:10521000000010260CF87E48D8BCAEE8A800006C50
:10522000C4FC38103EFE10D45C0030FC66100868E8
:10523000683E3E6868080000000000000000080F9B
:10524000080F080F0708190F0100080603030608D6
:105250000C070F091C06090D0505041F090909099A
:105260001F00080C0406030F0F030604080810199A
:105270000B0C0403020604090900001F080D0F0AA5
:105280000A0F08081F0000000404000000000000CE
:105290000000080F080F080F0708190F0100080683
:1052A000030306080C070F091C06090D0505041F5A
:1052B000090909091F00000000000000000004F4B3
:1052C000F49494FEFE9494F4E4042464FC2420E614
:1052D000E626E6662400889C5454F4F69694D4742A
:1052E0000C0004E4F41414B4E40404FC0404000CFE
:1052F000CC7C5E4CCCCC4C4C4C0040F806FEFC10F8
:10530000F61EFE16F60008EEFE5E5AFEFE5A5AFA29
:10531000AA08A4BCB6E6BCA4F4FC24E6662020E6F9
:10532000EC4048FE4848FEFE484000000080E63C55
:1053300070C0000000000000000000000000080C29
:105340000402010F0F0306040C000406030A0C07F5
:1053500001000F080806020A05050A0B0F000106E6
:1053600004040003030101010908080F00000407F9
:10537000090808080F0F08080808000F08070702A7
:105380000B0C07040F08080B0F0D090F0F090D0F69
:105390000A08040A080F020E0F01000F0000080798
:1053A000070C0B0908080B0B0808080C0603000083
:1053B000000003060C08000000000000000010B60A
:1053C00004F87E6CD89E96F4B4840434E4FC1C107B
:1053D0001EFE90D65C000494F49E1EF4941EFE3CC7
:1053E000840400FCFC8684FCFC8486FCF80000003D
:1053F00000000000000000000000000000000000AD
:10540000000000000000000000000000000000009C
:10541000000000000000000000000000000000008C
:10542000000000000000000000000000000000007C
:1054300000000000000000000000000000000C0F51
:105440000C07080F0308080F00000C060301020CEC
:10545000040307080C06090D0503010F0B030705DC
:105460000D0002020202020F0F02020202020000FD
:10547000000000000000000000000000000000002C
:10548000000000000000000000000000000000001C
:10549000000000000000000000000000000000000C
:1054A00000000000000000000000000000000000FC
:1054B00000000000000000000000000000000000EC
:1054C00000000000000000000000000000000000DC
:1054D00000000000000000000000000000000000CC
:1054E00000000000000000000000000000000000BC
:1054F00000000000000000000000000000000000AC
:10550000000000000000000000000000000000009B
:10551000000000000000000000000000000000008B
:10552000000000000000000000000000000000007B
:10553000000000000000000000003031323334353C
:1055400036373839414243444546403058003031BF
:1055500032333435363738396162636465664030DA
:1055600078000400000800000000000000020001B4
:1055700000001000000000004FBB610567ACDD3F7C
:10558000182D4454FB21E93F9BF681D20B73EF3F6A
:10559000182D4454FB21F93FE2652F227F2B7A3CE2
:1055A000075C143326A6813CBDCBF07A8807703C9B
:1055B000075C143326A6913CC4EB98999999C9BF0E
:1055C000711623FEC671BCBF6D9A74AFF2B0B3BF43
:1055D0009AFDDE522DDEADBF2F6C6A2C44B4A2BF03
:1055E0000D5555555555D53FFF8300922449C23F6F
:1055F0006E204CC5CD45B73F513DD0A0660DB13FA3
:10560000EB0D76244B7BA93F11DA22E33AAD903FB4
:10561000000000000000000002400000000000A0A8
:105620000000000005400000000000C8000000006D
:105630000C4000000000409C0000000019400000E9
:105640000020BCBE0000000034400000BFC91B8E1B
:1056500000000004B5400000504BCFD06607E2CFF9
:10566000010000006C4100003E8251AADFEEA73429
:1056700001000000D9420000DCB5A0E23A301F97DB
:10568000FFFFFFFFB4450000FD25A0C8E9A3C14FFF
:10569000FFFFFFFFFF3F0000000000800000000050
:1056A000FF3F00000000008000000000E8560008F6
:1056B0000000002018000000280100080057000822
:1056C00018000020A8070000440100081C0000008A
:1056D00043000000F8FFFFFF0C0000000E00000078
:1056E0000F0000002E00000000000000000001007C
:1056F00000000000000000000000000000000000AA
:04000005080000ED02
:00000001FF
